:02000000ff00ff
:080002004c6174746963650030
:17000a00694345637562653220323031372e30382e32373934300069
:16002100506172743a2069434534304858314b2d545131343400fc
:1b003700446174653a2046656220323820323032302031393a30373a3335008e
:0200520000ffad
:040054007eaa997e69
:02005800510055
:02005a0001059e
:03005c00920020ef
:03005f0062014bf0
:0300620072009099
:0300650082000016
:02006800110085
:02006a00010192
:20006c00000000000000000000000000000000000000000000000000000000000000000074
:09008c000000000000000000006b
:2000950000000000000000000000000000000000000000000000000000000000000000004b
:0a00b5000000000000000000000041
:2000bf00000000000000000000000000000000000000000000000000000000000000000021
:0900df00000000400000000000d8
:2000e8000000000000000000000000000000000000000000000000000000000000000000f8
:0a01080000000000000000000000ed
:200112000000000000000000000000000000000000000000000000000000000000000000cd
:09013200000000000000000000c4
:20013b000000000000000000000000000000000000000000000000000000000000000000a4
:0a015b00000000000000000000009a
:200165000000000000040000000000001000000000000040000000001000000000000040d6
:0901850000000000000000000071
:20018e00000000000000000000000000000000000000000000000000000000000000000051
:0a01ae00000000080000000000003f
:2001b800000000000004000000000000100000000000004000000000100000000000004083
:0901d8000000000000010000001d
:2001e1000000000000000000000000000000000000000000000000000000000000000000fe
:0a02010000000000000000000000f3
:20020b000000000000000000000000000000000000000000000000000000000000000000d3
:09022b00000000000000000000ca
:200234000000000000000000000000000000c00000000000000000000000000000000000ea
:0a02540000000000000000000000a0
:20025e00000000000000000000000070000000000000000000000000000000000000000010
:09027e0000000000000000000077
:20028700000000000000000000000000000000000000000000000000000000000000000057
:0a02a700000000000000000000004d
:2002b10000000000000000000000000000000000000000000000000000000000000000002d
:0902d10000000000000000000024
:2002da00000000000000000000000000000000000000000000000000000000000000000004
:0a02fa0000000000000000000000fa
:200304000000000000000000000000000000000000000000000000000000000000000000d9
:090324000000000014604000809c
:20032d00000000000000000000000000000000000040000000000000000000000000000070
:0a034d00000000000022c090000034
:20035700000200000000000000000000000000000000000000000000000000000000000084
:090377000000060020000896c0f9
:2003800000000000000000000000000000000000000000000000000000000000000000005d
:0a03a00000000000004000c69000bd
:2003aa00300300000000000000000000000000000000000000000000000000000000000000
:0903ca00000000001403c850c03b
:2003d3000300200000000000000000000000000000000000000000000000000000000000e7
:0a03f300000000000022f600500098
:2003fd000002000000000000000000000000000000000000000000000000000000000000de
:09041d000000000006600896c012
:20042600000020000000000000000000000000000000000000000000000000000000000096
:0a0446000000000000000096900086
:2004500000000000000000000000000000000000000000000000000000000000000000008c
:090470000000000006020912c0a0
:20047900000020000000000000000000000000000000000000000000000000000000000043
:0a0499000000000000003482100093
:2004a300000000000000000000000000000000000000000000000000000000000000000039
:0904c3000000000006076850402b
:2004cc00000000000000000000000000000000000000000000000000000000000000000010
:0a04ec000000000000020e00a00056
:2004f6000000000000000000000000000000000000000000000000000000000000000000e6
:090516000000000000064d000089
:20051f000000000000000000000000000000000000000000000000000000000000000000bc
:0a053f0000000000000206a4000006
:2005490000040000000000000000000000000000000000000000000000000000000000008e
:090569000000000000015c20010b
:200572000002800000000000000000000000000000000000000000000000000000000000e7
:0a05920000000000000035f000003a
:20059c0000010000000000000000000000000000000000000000000000000000000000003e
:0905bc00000000000003ea3040d9
:2005c500000000000000000000000000000000000000000000000000000000000000000016
:0a05e50000000000000036e2800074
:2005ef000003000000000000000000000000000000000000000000000000000000000000e9
:09060f000000060000000a0f4083
:200618000000000000000000000000000000000000000000000000000000000000000000c2
:0a0638000000000000000000f000c8
:20064200000000000000000000000000000000000000000000000000000000000000000098
:090662003fc0400026000e964046
:20066b0000002000000000000000000000000000000000000000000000000000000000004f
:0a068b0003fc40000040150690003b
:20069500000200000000000000000000000000000000000000000000000000000000000043
:0906b500000000000028faf50025
:2006be0000000000000000000000000000000000000000000000000000000000000000001c
:0a06de000000000000002f00a00043
:2006e8000000000000000000000200000000000000000000000000000000000000000000f0
:0907080000000000006800000080
:200711000000200000000000000000000000000000000000000000000000000000000000a8
:0a07310000000000000000000000be
:20073b0000000000000000000000000000000000000000000000000000000000000000009e
:09075b0000000000000400000091
:20076400000000000000000000000000000000000000000000000000000000000000000075
:0a07840000000000000280000000e9
:20078e0000000000000000000000000000000000000000000000000000000000000000004b
:0907ae000000000004040000003a
:2007b700000000000000000000000000000000000000000000000000000000000000000022
:0a07d70000000000002200000000f6
:2007e1000000000000000000000000000000000000000000000000000000000000000000f8
:09080100000000000004000000ea
:20080a000000000000000000000000000000000000000000000000000000000000000000ce
:0a082a000000000000028000000042
:2008340000000000000d78150000000034a5540000000000000000000000000000000018c5
:09085400002000000001400080ba
:20085d00000000000000703d5010000001e0f0490040000000000000000000000000000014
:0a087d0080000800000002a0000047
:200887000002180000000000006000000000000000000000000000000000000180050a1a2d
:0908a7003c200600200568f080e9
:2008b000000000000000000000000000000000000000000000000000000000000000d9b09f
:0a08d00003c000000043400f0000c9
:2008da00000010008000000000400200000000000000000000000000000000030000001a0f
:0908fa003c2000001463c850c04a
:2009030000000200010000000008000438000000000000000000000000000000300000005d
:0a09230003c000000022e6005000af
:20092d00000200000000000000000000000000000000000000000000000000000008001a86
:09094d003c2000001400e8f080d9
:20095600000000000000000000000000000000000000000000000000000000000000100071
:0a09760083c000000360020f0000c0
:2009800000000000000000000000000000000000000000000000000000000000000000da7d
:0909a0005d100000000369104025
:2009a900000020000000000000000000000000000000000000000000000000000000000707
:0a09c9003474000000000490800068
:2009d300000000000000000000000000000000000000000000000000000000000000000004
:0909f300000000000004000000f7
:2009fc0000000000000000000000000000000000000000000000000000000000000000805b
:0a0a1c0000000000000200000000ce
:200a26000000000000000000000000000000000000000000000000000000000000000800a8
:090a46000000000000077e0240e0
:200a4f00000000000000000000000000000000000000000000000000000000000000000087
:0a0a6f000000000000022db080001e
:200a7900000030003800000000c000e0000000000000000000000000000000000003000052
:090a990000000000000000000054
:200aa20000000200058000000008000200000000000000000000000000000000000008009b
:0a0ac20000000000000380000000a7
:200acc0006000000000000000000000614b2560000000000000000000000000000050abe15
:090aec00c200000014017ea520e7
:200af5000000000015000000000000143c5de5400000000000000000000000000000900169
:0a0b1500340000000000360aa000c2
:200b1f00000000005001728000680607b7e80200000000000060a0603ec634018008003efe
:090b3f008800960000000e0a4037
:200b480000000000008000280000408403c900080000000000000000017cc34000021000bb
:0a0b68004080000000028d005000e4
:200b7200000000000000630008402a0000000000000000000040000607ca00030000000074
:090b9200000000800071cc50400d
:200b9b000000000000000030000801043c000000000000000008000000c00000300000a029
:0a0bbb00000000000006be0050001c
:200bc500000200000000000000000062cfa04400000000000000020035c044200000188600
:090be50017c000000005f84000f3
:200bee000100008000000000000200007a7d0b40000000000002000402e00750000050058e
:0a0c0e0002bc05000143b5f0000030
:200c18000000000000000000000003c7a0d1240000000000000002606fa5060000000017ca
:090c38009d10008026296c800249
:200c410080002080000000000002020443482140000000000002003c3ced2140080100dbd3
:0a0c61002074002001440008000088
:200c6b000000000090100000000000000498020000000000000001c7a1e556000009999352
:090c8b00159040400061ee0042aa
:200c940000000000058a0000000000002d5b0000000000000000023e0050aa4000005083dc
:0a0cb4006d64010200000500c0009d
:200cbe0000000000000000000000000027e7142000000000000000000000000000081e1797
:090cde009590000016740000005e
:200ce70000000080000000000002000001f0f0400000000000020000000000000000d10176
:0a0d0700f65405000006000000008d
:200d110000000000580ff28080c000e06d8400000000000000c000078000000000580193a5
:090d3100159040000601cd484078
:200d3a0000000000000034000008000223c900000000000000080000000000000002108bca
:0a0d5a007964010000402cd810005d
:200d64000001000000a000000000e2e055e8040000000000000000030ec0000000000a8070
:090d84002950000020601af04023
:200d8d00000000000d1a00000000003e3b4e0041004000000000000000da2000000001b12b
:0a0dad00016820001543c10f00800b
:200db7000002180000000000006000003ca25400200000000000000015e8002180080000aa
:090dd7000000060000000cf070a1
:200de000000000000d0000000000000001dae5400100000000000c1401700010003810a05c
:0a0e0000000000000000010f0000d8
:200e0a0000001000500000000000020604c0800000000000000001428000000300000af656
:090e2a0084000400000008f041fe
:200e3300000002000d0000000000003c034e0000000000000000003400000000300000019e
:0a0e5300b00000400000010f000095
:200e5d00000200008001f8190000000284a55400600000000000000000000000002d009243
:090e7d0080408000000440a54003
:200e86000000008001009740d8000000001055400500000000020034000000000005d00b5c
:0a0ea600c00004000002800a5100a1
:200eb00000000000018d69410000094015e5540000000000000003c79daa0000000d9a009b
:090ed00029580000000400000094
:200ed900000020800000f248580201022f40f040000000000002001e4020a00008005003a8
:0a0ef9000168002200020000000062
:200f030000000000180d7811000000e72ed0800000000000000001e00000000000001800c2
:090f230000000040000000000085
:200f2c000000000000003682d800003642de000000000000000000020000000000000000bd
:0a0f4c00000000000000000000009b
:200f5600000000000003ea00440000604fe0002000000000000000000c98000000001f02d6
:090f76003c100000000000000026
:200f7f0000000080000012800022000020508000000000000002000039580000080001a0f2
:0a0f9f0043c0242000000000000001
:200fa9000000300001a0000000c00200168800300000000000080007800000000000001e1a
:090fc9008000000000000000009f
:200fd2000000020000000000000800042ff000090000000000004000400000000000000346
:0a0ff200b408000000000000000039
:200ffc000000000000af220021000000200a5400000000000000000034c004000007000066
:09101c0000000000003f6afe0024
:201025000000000000001f800000000001c05a09000000000000000022400f400000000037
:0a1045000000000000023e9ff010c2
:20104f0000001800f18039550060000001cf0408000000000060000000000001810808003c
:09106f00000006002071e91000e8
:20107800000000000190f02a900000000010f0080000000000000c1428000000000010e0dd
:0a10980000000000014417b000043e
:2010a2000000100001e7602900c0000001cf0400000000000040020000000000030018922a
:0910c200940000001e02580840d1
:2010cb000000020000000c02900400000000f008000000000008000400000000000050e924
:0a10eb000000000000e037a0000044
:2010f5000002000000003a80000003c781af050000000000000a020000000000000001070c
:09111500bc100020963800000017
:20111e00000000000000f0140000001e4000f001000000000000400400000000000000d04a
:0a113e0043c0000000034000000061
:2011480000000000000801990800000041af050000000000000001e016d04400000000d607
:09116800ff8000000000000000ff
:201171000000200000001026500000003c00f0000000000000000000024f075000000009db
:0a119100fbfc00000000000000005d
:20119b0000000000000000000000004001af04080180000000000006000000000000015759
:0911bb008100900000000000001a
:2011c4000000000000000000000000022410f020000000000000000000000000000000a025
:0a11e400c01002000000000000002f
:2011ee00000000001810628000040000000000000000000000040000000000030000008646
:09120e003d4800000002580800f0
:20121700000000000008d0140020a000000000000000000000000000000000001000000bf0
:0a12370043e80600000037a00000a5
:20124100000030000000000000c00040000000000000000000c000070594240000811c3efe
:091261002bc02c00203a7af702a0
:20126a0000000200000000000008000200000000000000000008000000ed215000000100f1
:0a128a0082bc008003401c0f3010ee
:2012940000000000500162640000a2c30000000000000000000000000000000000070e9217
:0912b4003bc020000060000000b6
:2012bd0000000000008b92dfc000002c680000000040000000000034000000000000390113
:0a12dd0078dc00001400000000009f
:2012e7000000180018c0300c080001601cc0a000000000000060000000e0f4004000000062
:0913070000000641c07adef50089
:201310000000000000800400c040001438790200020000000000000000000f40443070003d
:0a1330000000001018041dfef0007c
:20133a000000300000b16a64000000029ccfd02000000000000000001cd25400008000ffc6
:09135a00bec0000000025e830227
:2013630080000300001992f0801000000000fd080000000000000000006ae5004000000b1d
:0a138300b7fc000004003e0c30002f
:20138d00060200009800000000000000258f0000000000000000006000000000000000008c
:0913ad00000001a00000cc5f006b
:2013b60000000000018000000000001400d0f50080000000000001400000000000000000fc
:0a13d6000000001414000105f000ef
:2013e00000000000001063c14004c9428d95f00000000000000000e00000000000080183ec
:091400009400000000067ef54294
:20140900000020000008043c040021026e487f000000000000000000000000000000f0fb14
:0a1429004280000801428e054200d7
:201433000000000000052014000e01c01c820200000000000000000005a55410000f1e971f
:09145300004080202062de5b00f5
:20145c000000000000000c014000600200ff6600000000000000020000c0f0000000f89f13
:0a147c000000000000c01df6f000a3
:201486000000000001e929f8080408028ccf500000000000000000605ec55410000381000f
:0914a600000000008007dcc30215
:2014af00000000000010541fc00021746edb7000400000000000000020205500000008f0bf
:0a14cf00000000000402bf0c200022
:2014d9000000300000000000000000001cd010000000000000c0000040000000281809fb83
:0914f90044004c80202a0cfa008a
:2015020000000200000000000000000000fa0000000000000008000020000000013a70fbff
:0a152200b320008408401c0f5000a5
:20152c0000000000001533c3000001469eaad200000000000000000617b800000000015607
:09154c008144000020074e8000dc
:201555000040000000090243c0000002437a5c0000000000000000003ddd0000000000ef04
:0a1575008000000002c20ed000004a
:20157f0000001800000723c3406000004da5a00020000000006007401ea7142180080003c9
:09159f00814006000601fbf10089
:2015a8000000000000000003c000080037c81a0001000000000000840360f0010020b00d89
:0a15c8004028000020401eaf000084
:2015d20020000000819523c340000366c0af040000200000004000600eca000100000c5ebe
:0915f2008100800020046a05401c
:2015fb008100000001080803c00080142800f00000000000000400002800a000100000dd16
:0a161b008140000001c3a40fa0806d
:2016250000030000000521554000006294b0a000000000000000006006c2542028001e06b9
:091645003c181c007600000000b6
:20164e00000000000000081540000e142adf8a00000000000000001c2a40da010100b1d087
:0a166e0003c00040c9c000000000e6
:20167800000000001000000000000207c5b200000000400000000260158a00000000003b46
:09169800bd4800000021fe4000e5
:2016a1000002c000000000000000002c2369000000000000000000040020a0000000000dde
:0a16c10042800000000346f0020022
:2016cb0000000000000000000000040077c00000000000000000006056c254200807017e4a
:0916eb00a80000008062006642c4
:2016f40080000800000000000000000027705000000000000000000020c0e501000008e0b9
:0a171400c3e80000c640040990007d
:20171e0000000000180000000000000044e2513000000000000000e017b63410038019005f
:09173e0000000000003ddc050084
:2017470008000000000000000000000026d05a20400000000000000001ddc300010090e0b8
:0a1767000000000021c24700f0005e
:2017710000003000000000000000100001ac00200000000000c00007000000032810083a07
:09179100a94000082621f80842d5
:20179a000000020000000000000000803010c0010000000000080100000000002108010772
:0a17ba00c2a820000263ac00c004c6
:0217c400000023
:0217c60011010f
:0217c80001011d
:2017ca000000000000000000000000000000000000000000000000000000000000000000ff
:0917ea00000000000000000000f6
:2017f3000000000000000000000000000000000000000000000000000000000000000000d6
:0a18130000000000000000000000cb
:20181d000000000000000000000000000000000000000000000000000000000000000000ab
:09183d000000000003000000009f
:20184600000000000000000000000000000000000000000000000000000000000000000082
:0a1866000000000000000000000078
:20187000000000000000000000000000000000000000000000000000000000000000000058
:091890000000000000000000004f
:2018990000000000000000000000000000000000000000000000000000000000000000002f
:0a18b9000000000000000000000025
:2018c300000000000004000000000000100000000000004000000000100000000000004061
:0918e300000000000001000000fb
:2018ec000000000000000000000000000000000000000000000000000000000000000000dc
:0a190c0000000000000000000000d1
:2019160000000000000400000000000010000000000000400000000010000000000000400d
:09193600000000000001000000a7
:20193f00000000000000000000000000000000000000000000000000000000000000000088
:0a195f00000000000000000000007e
:2019690000000000000000000000000000000000000000000000000000000000000000005e
:0919890000000000000000c00095
:20199200000000000000000000000000000000000000000000000000000000000000000035
:0a19b2000000000000000004000027
:2019bc0000000000000000000000000000000000000000000000000000000000000000000b
:0919dc0000000000000000000002
:2019e5000000000000000000000000000000000000000000000000000000000000000000e2
:0a1a050000000000000000000000d7
:201a0f000000000000000000000000000000000000000000000000000000000000000000b7
:091a2f00000000000000000000ae
:201a380000000000000000000000000000000000000000000000000000000000000000008e
:0a1a58000000000000000000000084
:201a6200000000000000000000000000000000000000000000000000000000000000000064
:091a82000000000000000000005b
:201a8b0000000000000000000000000000000000000000000000000000000000000000003b
:0a1aab000000000000000000000031
:201ab500000000000000000000000000000000000000000000000000000000000000000011
:091ad50000000000000000000008
:201ade000000000000000000000000000000000000000000000000000000000000000000e8
:0a1afe0000000000000000000000de
:201b08000000000000000000000000000000000000000000000000000000000000000000bd
:091b2800000000000000000000b4
:201b3100000000000000000000000000000000000000000000000000000000000000000094
:0a1b5100000000000000000000008a
:201b5b00000200000000000000000000000000000000000000000000000000001000000058
:091b7b0000000000000000000061
:201b84000000000000000000000000000000000000000000000000000000000000800000c1
:0a1ba4000000000000000000000037
:201bae00000000000000000000000000000000000000000000000000000000000000000017
:091bce000000000000000000000e
:201bd70000002000000000000000000000000000000000000000000000000000028000004c
:0a1bf70000000000000000000000e4
:201c01000000000000000000000000000000000000000000000000000000000000000000c3
:091c2100000000000000000000ba
:201c2a0000000000000000000000000000000000000000000000000000000000000000009a
:0a1c4a000000000000000000000090
:201c5400000000000000000000000000000000000000000000000000000000000000000070
:091c740000000000000000000067
:201c7d00000000000000000000000000000000000000000000000000000000000000000047
:0a1c9d00000000000000000000003d
:201ca70000000000000000000000000000000000000000000000000000000000000000001d
:091cc70000000000000000000014
:201cd0000000000000000000000000000000000000000000000000000000000000000000f4
:0a1cf00000000000000000000000ea
:201cfa000000000000000000000000000000000000000000000000000000000000000000ca
:091d1a00000000000000000000c0
:201d23000000000000000000000000000000000000000000000000000000000000000000a0
:0a1d43000000000000000000000096
:201d4d00000000000000000000000000000000000000000000000000000000000000000076
:091d6d000000000000000000006d
:201d760000000000000000000000000000000000000000000000000000000000000000004d
:0a1d96000000000000000000000043
:201da000000000000000000000000000000000000000000000000000000000000000000023
:091dc0000000000000000000001a
:201dc9000000000000000000000000000000000000000000000000000000000000000000fa
:0a1de90000000000000000000000f0
:201df3000002000000000000000000000000000000000000000000000000000000000000ce
:091e1300000000000000000000c6
:201e1c000000000000000000000000000000000000000000000000000000000000000000a6
:0a1e3c00000000000000000000009c
:201e460000000000000000000000000000000000000000000000000000000000000000007c
:091e660000000000000000000073
:201e6f00000020000000000000000000000000000000000000000000000000000000000033
:0a1e8f000000000000000000000049
:201e9900000000000000000000000000000000000000000000000000000000000000000029
:091eb90000000000000000000020
:201ec200000000000000000000000000000000000000000000000000000000000000000000
:0a1ee20000000000000000000000f6
:201eec000000000000000000000000000000000000000000000000000000000000000000d6
:091f0c00000000000000000000cc
:201f15000000000000000000000000000000000000000000000000000000000000000000ac
:0a1f350000000000000000000000a2
:201f3f0000000000000000000000000000000000040000000000000000000000000000007e
:091f5f0000000000000000000079
:201f6800000000000000000000000000000000000000000000000000000000000000000059
:0a1f8800000000000000000000004f
:201f920000000000000000000000000000000000000000000000000000000000000000002f
:091fb20000000000000000000026
:201fbb00000000000000000000000000000000000000000000000000000000000000000006
:0a1fdb0000000000000000000000fc
:201fe5000000000000000000000000000000000000000000000000000000000000000000dc
:09200500000000000000000000d2
:20200e000000000000000000000000000000000000000000000000000000000000000000b2
:0a202e0000000000000000000000a8
:20203800000000000000000000000000000000000000000000000000000000000000000088
:092058000000000000000000007f
:2020610000000000000000000000000000000000000000000000000000000000000000005f
:0a2081000000000000000000000055
:20208b00000200000000000000000000000000000000000000000000000000000200000031
:0920ab000000000000000000002c
:2020b40000000000000000000000000000000000000000000000000000000000000000000c
:0a20d4000000000000000000000002
:2020de000000000000000000000000000000000000000000000000000000000000000000e2
:0920fe00000000000000000000d9
:20210700000020000000000000000000000000000000000000000000000000000000000098
:0a21270000000000000000000000ae
:2021310000000000000000000000000000000000000000000000000000000000000000008e
:0921510000000000000000000085
:20215a00000000000000000000000000000000000000000000000000000000000000000065
:0a217a00000000000000000000005b
:2021840000000000000000000000000000000000000000000000000000000000000000003b
:0921a40000000000000000000032
:2021ad00000000000000000000000000000000000000000000000000000000000000000012
:0a21cd000000000000000000000008
:2021d7000000000000000000000000000000000000000000000000000000000000000000e8
:0921f700000000000000000000df
:2022000000000000000000000000000000000000000000000000000000000000008000003e
:0a22200000000000000000000000b4
:20222a00000000000000000000000000000000000000000000000000140aa00000000000d6
:09224a00000000000c40c0f5008a
:202253000000000000000000000000000000000000000000000000000178a540000000000d
:0a2273000000000000e39dea0000f7
:20227d000000000000000000000000000000000000000000000001c4050a0000000f003f1f
:09229d004dc201000003d0d10183
:2022a600000000000000000000000000000000000000000000000000237cf5400000800db7
:0a22c6006fbc0010004301ce202081
:2022d0000000000000000000000000000000000000000000000000421e055000000309002d
:0922f000000000000000f0a00055
:2022f90000000000000000000000000000000000000000000000002664f8a54000008000de
:0a23190000000000000615af5000a0
:20232300000200000000000000000000000000000000000000200000060a00000000000068
:09234300000000a002034f01019b
:20234c00000000000000000000000000000000000000000000000006035cf54000000000d7
:0a236c000000000401602190200031
:202376000000000000000000000000000000000000000000000001400405500000000e009f
:09239600000000014241e0f500e5
:20239f0000002000000000000000000000000000000000000000001400f8a54000000010fd
:0a23bf0000000000004237a5f20004
:2023c900000000000000000000000000000000000000000000c00242840fa01000000e009f
:0923e9000000000000434ff90858
:2023f2000000000000000000000000000000000000000000000c00202a0cf5400000000034
:0a241200000000000007a7f7e0003b
:20241c000000000000000000000000000000000000000000000000c0000050000000000090
:09243c00000000000201f8d700c5
:2024450080000000000000000000000000000000000000000006002000580540000001c073
:0a24650000000000004037ff600097
:20246f0000000000000000000000000000000000040000000000004005be200010000f9473
:09248f000002000000034f6d0083
:202498004000000000000000000000000000000000000000000000346208d14000380007f6
:0a24b80060140000100027f7a000d8
:2024c2000000000000000000008000000000000000000000008000000405a000000f0a0038
:0924e200000008000400fe0400e3
:2024eb000000000000000000000c00000000000000000000000c00000200a54000000010c2
:0a250b00000000c000000f9400045f
:202515000000000000000000002000000000000000000000002000001405a000000000dcd1
:09253500014002000422c0fa007a
:20253e008000000000000000000000000000000000000000000000000000a5400000000f09
:0a255e00a83c000000003da054104e
:20256800000000000000000000000000000000000050000000000000000f000001800e0065
:092588000000000000204f9a0140
:20259100000000000000000000000000000000000000000000000000001af0400000581078
:0a25b10000000000000061865608db
:2025bb00000208000000000000220003c00f000000000000002000c0000a500080001098a0
:0925db00280002000000000000cd
:2025e400000700000000000000004004000cf06000000000000000200040a540000019ebe7
:0a26040073d48000004000000000c5
:20260e000000000000000000000000000000000000000000000000e0000f000000008a0033
:09262e00000000400c01f87f00df
:2026370000002000000000000000000000000000000000000000012e000cf04000007890f0
:0a26570000000002020237dfe080fd
:202661000880000000000000004a0000000000000000000000400000000f000300001f9383
:09268100788200000003500f08ec
:20268a000440000000000000000c400000000000000000000004000e001af040100001c86b
:0a26aa007f44000000002788f020a4
:2026b400800000000000000000000000000000000000000000000000000a500000000c9090
:0926d40017c000000c39d0aa0067
:2026dd00000000000000000000060000000000000000000000060c9c0040a540180001b833
:0a26fd006abd00600262e1c55000f2
:202707000002000000000000000000000000000000200000000000e3000000004000005815
:0927270028000000000000000081
:2027300004000000000000000000000000000000000500000000002e040000000400000d3d
:0a275000b3d5008200000000000075
:20275a0000000000000143680000000006b000000000000000800020050f000c000f80ded0
:09277a00404000000e0370240829
:2027830000000000001a578940800000005b800000000000000c000421fa5540400039a7c1
:0a27a3007948000001c02fa040207b
:2027ad0000000000000d01400000000000000000000000000000000200000000000708337a
:0927cd00600000000442501000fd
:2027d60000000000010086a80000000000000000000000000000001600000000000001cfce
:0a27f600b0c8010400072da0002068
:202800000000000000014000000000000000000000000000000000000000000000010a5b11
:092820002cc000001c2dc0af28e3
:2028290040000000001a1e94000000000000000000000000000000000000000000001189e9
:0a2849007ff80000200001e5f21006
:202853002000000000014140000000000000000080000000000000038000000000000f0ca5
:09287300388000000203dcc00003
:20287c00010000000100b23d4010000000000000000000000000000000000000000010b536
:0a289c00f38808000042059ca0002c
:2028a600000000005003828000000002800000000000000000000000260a00000b870ade91
:0928c60056c00000807800e20811
:2028cf0000003000000a5bbd4800001400000000000000000000000062def5080000800777
:0a28ef007bdc00101063d78e202060
:2028f9000000000000ad83c000000002800000000000000000000800050f500000000f00d2
:0929190000000000003000c500c0
:20292200000000000181be9c408000000000000000000000000001400218fa28000000106c
:0a2942000000000054075f8c5020d5
:20294c000000000051090000000000028000000000000000000002c000000000000700f7cf
:09296c0080000100066f5df60019
:20297500000001800018902940000000000000000000000000060000780000000000000131
:0a299500f200200003e604a0f000a9
:20299f0000000000510043c004000002959e500004500000000000001ff3000000000ef4d3
:0929bf002bc000011c0378a501e6
:2029c80000000000050e02bc10000014024b2500000600000008001e01d93a08000001f847
:0a29e800317c000cc8e014c20000ae
:2029f20000003000000de3c0004000002d9da011000100d000000140370c0000000080da7b
:092a120083c000003c00ee1a0034
:202a1b0000000100000afe9c500c0000025d2540300000000000003e225ac302000038af40
:0a2a3b00be2c0000014016e140101f
:202a45000000000000000000000000022fae5000000919b000000160060040000009005868
:092a6500140000000439cb000844
:202a6e00000000000180000000000000076f2540400000918010003c00da0c02001058c13e
:0a2a8e0033d4000000475cd20000c2
:202a98000000000000000000000002624105500000098830000020242d908000002000b70b
:092ab800740000a1420340d101a9
:202ac100000000000000000000000014657c5560000070080000001c23de1800000100a9f4
:0a2ae1006be0000009c001ee2020a8
:202aeb0000020000000941540000000206000080000008d8000001e03500400000001098c5
:092b0b003bc00000002a4f7a00d3
:202b14000000000000005ea950000000057c40020000000f0020002460da0a02000019e1f4
:0a2b3400eab4080001e01fcf7000b2
:202b3e000000000010a000000000000206d000000000007000000067cc9bb000001909b827
:092b5e003fc00000403f60500040
:202b6700000020000f1800000000000604db0800000000880000002e6bf9ff00000080a9d8
:0a2b87008168000009e7e6af500086
:202b91000000000010000000000003402dab20030000085000000004149ad000000d90045b
:092bb10028c000000029500000ba
:202bba00000000000800000000000000020f714030001081001000003bdf7e00000071a1b6
:0a2bda00a28c0800016664e0a00070
:202be40000000000010d27880000000405aca01004001070000001c6750aa000080d897c2b
:092c040029400000003830e20014
:202c0d0000000180000a83f450060000281cc540180079800000a0202a085500000051a7b6
:0a2c2d002aa80000e00054ce202089
:202c37000000000008bf43d4010a014000000000040080db4000004275c10000000f1872a3
:092c570014000000003a4f7a005d
:202c6000000002000500d6815008402600000000000018018410002078da4200001080ed5a
:0a2c80006c90000001e05fcf7000cf
:202c8a00000000000800000000000000020a00010000809000000000020a300008001d089c
:092caa002c4000203e0000000057
:202cb300000000000100000000000004007aa000100038000000001628dca302010001d108
:0a2cd300e2c40804006000000000e5
:202cdd0000000000000043ec000000266597200000050a58000001c3dd9cb00000010c18ed
:092cfd0014000000163400000070
:202d060000000000000016bec0800006640bb1000000f80f004000206a0ec7000080b8f5a0
:0a2d2600bbe8000000404000000080
:202d3000002800009005800000000023bdc80200000010b0000c0240270f70000000105c7c
:092d500000040000007b60f500a6
:202d590000004000018016080080001601cf5500000059c80000001471dee702003001a37f
:0a2d79007a008c000063afaa00008e
:202d8300000200000005fbe8000800241d0a020000001c7800000003840c200000009e0c00
:092da300280000000029707a00ec
:202dac0000000000200012e840000014614ca500000000f18010001e04dc8002000039d538
:0a2dcc003280000000005485222030
:202dd60000000000009000000000002282cd100000008ab00000a1c01580a00010000efce2
:092df6002bc00000027d70af004b
:202dff0000002000000100000000000e0078d100000010100000016002f84a000300000173
:0a2e1f003a9c0800006384cff00025
:202e29001000000090a0000000000043df0a500100000070000000021d9cb00000098f0455
:092e490001400006042360ad0005
:202e5200030000000d000000000000202e7a5500300001ab80100000060ec7000000b80133
:0a2e7200f014000003406fc4a0201c
:202e7c000000000090000000000001c6bf0c1000008909d000004002ee958000002d0c0024
:092e9c00000000413c01cef300ee
:202ea500000000000800000000000020394e8002180001a8000000007a5da80000199800eb
:0a2ec500000000020a0025ef700073
:202ecf000000000008d303e844000002dfdfa00000001092c00003e60d0a0000002d0a7a66
:092eef008ec000003c65d86e00a5
:202ef80000000000018b973fc000000000cffb00000001ef0020001433caf500000580072c
:0a2f1800b3bc000001e204f9500010
:022f22000000ad
:022f2400110298
:022f26000101a7
:202f2800000000000000000000000000000000000000000000000000000000000000000089
:092f480000000000000000000080
:202f5100000000000000000000000000000000000000000000000000000000000000000060
:0a2f71000000000000000000000056
:202f7b00000000000000000000000000000000000000000000000000000000000000000036
:092f9b000000000000000000002d
:202fa40000000000000000000000000000000000000000000000000000000000000000000d
:0a2fc4000000000000000000000003
:202fce000000000000000000000000000000000000000000000000000000000000000000e3
:092fee00000000000000000000da
:202ff7000000000000000000000000000000000000000000000000000000000000000000ba
:0a30170000000000000000000000af
:203021000000000000080000000000002000000000080000000000002000000000000080bf
:0930410000000000000200000084
:20304a00000000000000000000000000000000000000000000000000000000000000000066
:0a306a00000000000000000000005c
:2030740000000000000800000000000020000000000800000000000020000000000000806c
:0930940000000000000200000031
:20309d00000000000000000000000000000000000000000000000000000000000000000013
:0a30bd000000000000000000000009
:2030c7000000000000000000000000000000000000000000000000000000000000000000e9
:0930e700000000000000000000e0
:2030f0000000000000000000000000000000000000000000000000000000000000000000c0
:0a31100000000000000000000000b5
:20311a00000000000000000000000000000000000000000000000000000000000000000095
:09313a000000000000000000008c
:2031430000000000000000000000000000000000000000000000000000000000000000006c
:0a3163000000000000000000000062
:20316d00000000000000000000000000000000000000000000000000000000000000000042
:09318d0000000000000000000039
:20319600000000000000000000000000000000000000000000000000000000000000000019
:0a31b600000000000000000000000f
:2031c0000000000000000000000000000000000000000000000000000000000000000000ef
:0931e000000000000000000000e6
:2031e9000000000000000000000000000000000000000000080000000000000000000000be
:0a32090000000000000000000000bb
:2032130000000000000000000000000000000000000000000000000000000000000000009b
:0932330000000000000000000092
:20323c00000000000000000000000000000000000000000000000000000000000000000072
:0a325c000000000000000000000068
:20326600000000000000000000000000000000000000000000000000000000000000000048
:093286000000000000000000003f
:20328f0000000000000000000000000000000000000000000000000000000000000000001f
:0a32af000000000000000000000015
:2032b9000002000000000000000000000000000000000000000000000000000000000000f3
:0932d900000000000000000000ec
:2032e2000000000000000000000000000000000000000000000000000000000000000000cc
:0a33020000000000000000000000c1
:20330c000000000000000000000000000000000000000000000000000000000000000000a1
:09332c0000000000000000000098
:20333500000020000000000000000000000000000000000000000000000000000000000058
:0a335500000000000000000000006e
:20335f0000000000000000000000000000000000000000000000000000000000000000004e
:09337f0000000000000000000045
:20338800000000000000000000000000000000000000000000000000000000000000000025
:0a33a800000000000000000000001b
:2033b2000000000000000000000000000000000000000000000000000000000000000000fb
:0933d200000000000000000000f2
:2033db000000000000000000000000000000000000000000000000000000000000000000d2
:0a33fb0000000000000000000000c8
:203405000000000000000000000000000000000000000000000000000000000000000000a7
:093425000000000000000000009e
:20342e0000000000000000000000000000000000000000000000000000000000000000007e
:0a344e000000000000000000000074
:20345800000000000000000000000000000000000000000000000000000000000000000054
:0934780000000004001c59900042
:2034810000000000000000000000000000000000000000000000000000000000000000002b
:0a34a100000000000005000a000012
:2034ab00000000000000000000000000000000000000000000000000000000000000000001
:0934cb000000000fb45a000001da
:2034d400800000000000000000000000000000000000000000000000000000000000000058
:0a34f400000000001ec4c00000002c
:2034fe000000000000000000000000000000000000000000000000000000000000000000ae
:09351e000000000d205e181000f1
:20352700000000000000000000000000000000000000000000000000000000000000000084
:0a35470000000000086ce00a00001c
:20355100000200000000000000000000000000000000000000000000000000000000000058
:093571000000000abc4e018000bc
:20357a00000000000000000000000000000000000000000000000000000000000000000031
:0a359a00000000003d40900000001a
:2035a400000000000000000000000000000000000000000000000000000000000000000007
:0935c4000000000093c180e0004a
:2035cd000000200000000000000000000000000000000000000000000000000000000000be
:0a35ed0000000000062ef1000000af
:2035f7000000000000000000000000000000000000000000000000000000000000000000b4
:093617000000000029fc980000ed
:2036200000000000000000000000000000000000000000000000000000000000000000008a
:0a364000000000000283810000007a
:20364a00000000000000000000000000000000000000000000000000000000000000000060
:09366a0000000200414880e0006c
:20367300000000000000000000000000000000000000000000000000000000000000000037
:0a369300000000000034d100000028
:20369d0000000000000000000000000000000000000000000000000000000000000000000d
:0936bd000000010031e0181000ca
:2036c6000000000000000000000000000000000000000000000000000000000000000000e4
:0a36e600000000000302a0880000ad
:2036f000000000000000000000000000000000000000000000000000000000000000f214b4
:0937100060000000000000000050
:203719000000000000000000000000000000000000000000080000000000000000020db0c9
:0a3739002000000000000000000066
:20374300000000000000000000000000000000000000000000000000000000000260534071
:09376300000060000000000001fc
:20376c0080000000000000000000000000000000000000000000000000000000000c01f4bc
:0a378c000000000000000000000033
:2037960000000000000000000000000000000000000000000000000000000000025013941a
:0937b6000000000000000000000a
:2037bf0000000000000000000000000000000000000000000000000000000000000500c025
:0a37df0020000000000000000000c0
:2037e9000002000000000000000000000000000000000000000000000000000002c633d6ed
:093809000000000000001800009e
:2038120000000000000000000000000000000000000000000000000000000000000c3bb49b
:0a383200000000000000000000008c
:20383c000000000000000000000000000000000000000000000000000000000080013b268a
:09385c000400000000000000005f
:2038650000002000000000000000000000000000000000000000000000000000000007f428
:0a38850043400000000000000000b6
:20388f00000000000000000000000000000000000000000000000000000000000000000613
:0938af0000000000000000100000
:2038b8000000000000000000000000000000000000000000000000000000000000000000f0
:0a38d800000000000000000a0000dc
:2038e2000000000000000000000000000000000000000000000000000000000000000020a6
:093902006000000000000000005c
:20390b0000000000000000000000000000000000000000000000000000000000000000009c
:0a392b00400000000000000e000044
:203935000000000000000000000000000000000000000000000000000000000002aa304056
:093955000000300aa97c0000000a
:20395e00c0000000000000000000000000000000000000000000000000000000000550b480
:0a397e000000010003c2e000000495
:203988000000000000000000000000000000000000000000000000000000000000009a5431
:0939a80000000003e8ee0000003d
:2039b10000000000000000000000000000000000000000000000000000000000000405e00d
:0a39d100028000003fc3b0000000b8
:2039db000000000000000000000000000000000000000000000000000000000000000014b8
:0939fb000400610a80cf580001ac
:203a0400800000000000000000000000000000000000000000000000000000000000000022
:0a3a2400020000002c0090000000da
:203a2e000000000000000000000000000000000000000000000000000000000000a07e86d4
:093a4e000000000921cc18000061
:203a570000000000000000000000000000000000000000000000000000000000000a00c085
:0a3a7700000000000176c00000000e
:203a8100000200000000000000000000000000000000000000000000000000004001324070
:093aa1006000000bc0ca00000027
:203aaa00000000000000000000000000000000000000000000000000000000000080003b41
:0a3aca00428000000001c00000006f
:203ad4000000000000000000000000000000000000000000000000000000000042207ec032
:093af4002c00000bc0c001900081
:203afd00000020000000000000000000000000000000000000000000000000000001c020a8
:0a3b1d00060004023c00000e001038
:203b270000000000000000000000000000000000000000000000000000000000022056c046
:093b47000000000000001800005d
:203b500000000000000000000000000000000000000000000000000000000000000e03a89c
:0a3b700003800000000000000000c8
:203b7a0000000000000000000000000000000000000000000000000000000000028efec0dd
:093b9a0000000003e9c081800075
:203ba300000000000000000000000000000000000000000000000000000000000000f3bc53
:0a3bc300000004003d42b1000010b4
:203bcd00000000000000000000000000000000000000000000000000000000000001ff6672
:093bed000000310ac0cf00000005
:203bf60000000000000000000000000000000000000000000000000000000000000005bcee
:0a3c160062c001001000d0000000a1
:203c2000000000000000000000000000000000000000000000000000000c00000000001464
:093c400000000000057f19d0000e
:203c4900000000000000000000000000000000000000000008000000000100000000000052
:0a3c6900038000840004a09e000008
:203c7300000000000000000000000000000000000000000000000000000000180000000019
:093c93000400600014e9000001c6
:203c9c00800000000000000000000000000000000000000000000000000000000000000088
:0a3cbc00028000000000a0080000d4
:203cc60000000000000000000000000000000000000000000002a9408000000c0000000067
:093ce60000000040144800000039
:203cef0000000000000000000000000000000000000000000000029400000000c00000005f
:0a3d0f0000000082014200000000e5
:203d1900000200000000000000000000000000000000000000000000000000000000001474
:093d3900000001033c6001900050
:203d4200c000000000000000000000000000000000000000000000000000000000000000a1
:0a3d62000280008033c00019000841
:203d6c000000000000000000000000000000000000000000000000000000000002a45fc072
:093d8c0000000008004e000000d8
:203d950000002000000000000000000000000000000000000000000000000001010a712051
:0a3db500000004013c028000001031
:203dbf000000000000000000000000000000000000000000000000000000000000000000e4
:093ddf00000000000000001000cb
:203de8000000000000000000000000000000000000000000000000000000000000000000bb
:0a3e0800000000000000010a0000a5
:203e120000000000000000000000000000000000000000000000000007800000020017c030
:093e32000000000a81df8000009d
:203e3b0000000000000000000000000000000000000000000000000000080001000f00ec63
:0a3e5b00000004022bc3d108001080
:203e650000000000000000000000000000000000000000000000000000000000000000201d
:093e850004003000000080100070
:203e8e00c00000000000000000000000000000000000000000000000000000000000000054
:0a3eae00420001000000010a0004b8
:203eb8000000000000000000000000000000000000000000000000000000000000000000ea
:093ed80000000000000080000061
:203ee1000000000000000000000000000000000000000000000000000000000000000000c1
:0a3f010000000000000001000000b5
:203f0b00000000000000000000000000000000000000000000000000000000000000000096
:093f2b000000000000000000018c
:203f34008000000000000000000000000000000000000000000000000000000000000000ed
:0a3f5400000000000000050000005e
:203f5e00000000000000000000000000000000000000000000000000000000000000000043
:093f7e000005000b195f000000b2
:203f870000000000000000000000000000000000000000000000000000000000000000001a
:0a3fa7000000200230e69500000043
:203fb1000002000000000000000000000000000000000000000000000000000000000000ee
:093fd100000000000000000000e7
:203fda000000000000000000000000000000000000000000000000000000000000000000c7
:0a3ffa0000000000000000000000bd
:2040040000000000000000000000000000000000000000000000000000000000000000009c
:0940240000000000000000000093
:20402d00000020000000000000000000000000000000000000000000000000000000000053
:0a404d000000000000000000000069
:20405700000000000000000000000000000000000000000000000000000000000000000049
:0940770000000000000000000040
:20408000000000000000000000000000000000000000000000000000000000000000000020
:0a40a0000000000000000000000016
:2040aa000000000000000000000000000000000000000000000000000000000000000000f6
:0940ca00000000000000000000ed
:2040d3000000000000000000000000000000000000000000000000000000000000000000cd
:0a40f30000000000000000000000c3
:2040fd000000000000000000000000000000000000000000000000000000000000000000a3
:09411d0000000000000000100089
:20412600c000000000000000000000000000000000000000000000000000000000000000b9
:0a414600000000000000000f00045c
:204150000000000000000000000000000000000000000000000283dc05810001000092c60f
:09417000000000000000780000ce
:2041790000000000000000000000000000000000000000000800003c20008000000023e03f
:0a419900000000000000008000009c
:2041a30000000000000000000000000000000000000000000001001c8000001840cf180020
:0941c3000400600000000000018e
:2041cc008000000000000000000000000000000000000000000000282f000000010cf0807f
:0a41ec004207000000000000000080
:2041f6000000000000000000000000000000000000000000000000000800000102a092e08c
:094216000000001aa9df000000fd
:20421f0000000000000000000000000000000000000000000000000000500000008ad3e0f2
:0a423f004000000003c2e000004050
:204249000002000000000000000000000000000000000000000000000000000102aa18008e
:09426900000000000000f98400cf
:2042720000000000000000000000000000000008000000000000000000000000008550242b
:0a4292000000000000000f00a00073
:20429c00000000000000000000000000000000000000000000403ce4a8000000000537407e
:0942bc00e8000001405c00000074
:2042c500000020000000000000000000000000000000000000000366fd30000020000034cf
:0a42e5000300000014030020000095
:2042ef000000000000000000000000000000000000000000000000000800000040cf18245c
:09430f003c00384aa97a5800006c
:2043180000000000000000000000000000000000000000000000000000300000200cf080b9
:0a43380067400201aa8100000000a6
:204342000000000000000000000000000000000000000000000000000f0000018aaa3040a7
:09436200000000083d608000002d
:20436b00000000000000000000000000000000000000000000000000007800002005503411
:0a438b00c000000283c20100000020
:2043950000000000000000000000000000000000000000000000000000005c000008bb00e9
:0943b5000000300000000090003f
:2043be00c000000000000000000000000000004000000000020000000000020000026bbcb2
:0a43de00000001000000001a0004b6
:2043e8000000000000000000000000000000000000000000000036dd8700000400e73ae610
:0944080001001018814a50000067
:2044110000000000000000000000000000000000000000000000021f7f000000000de9eb0a
:0a443100c00000002b5ec18f0000e8
:20443b000000000000000000000000000000000000000000001028c7e381001846a33a00c3
:09445b003900600000fa000001c4
:2044640080000000000000000000000000000000000000000000028c00088000089a30c010
:0a448400040000000281b00a0000ed
:20448e00000000000000000000000000000000000000000000003add8701000000a05b066e
:0944ae0000000003fd4b001008a2
:2044b7000000000000000000000000000000000000000000000801bf7f00f0000080002fff
:0a44d700c360000017c2c50f81404a
:2044e100000200000000000000000000000000000000000000003c1cd980000202a4ff065b
:09450100640001015dfa181000cc
:20450a000000000000000000000000000000000000000001000001be795000000885b16466
:0a452a0003c000003543b009000093
:2045340000000000000000000000000000000000000000000001a816bf00000000e7bac088
:0945540060000100685f00000036
:20455d0000002000000000000000000000000000000000000002017c28980000000de3e807
:0a457d00000000002e83d0080000ab
:20458700000000000000000000000000000000000000000000210047b800000000057aee87
:0945a70002800100f46981da00d0
:2045b000000000000000000000000000000000000000000000002001df100000000000607b
:0a45d00042c200000640c9194c0069
:2045da0000000000000000000000000000000000000000000000a816d9800002c4f35000a1
:0945fa0000000003e94b01800000
:2046030000000000000000000000000000000000000000000008417c3d98b000200f3000ee
:0a462300000000003fc2c00000408c
:20462d000000000000000000000000000000000000000000002083d7f90e008cc2257ece2d
:09464d0068703308ad699800c0e3
:20465600c00000000000000000000000000000000000000000000136fb190014680e50f46b
:0a4676002000018003c3ab800004a4
:02468000000038
:02468200110322
:02468400010132
:20468600000000000000000000000000000000000000000000000000000000000000000014
:0946a6000000000000000000000b
:2046af000000000000000000000000000000000000000000000000000000000000000000eb
:0a46cf0000000000000000000000e1
:2046d9000000000000000000000000000000000000000000000000000000000000000000c1
:0946f900000000000000000000b8
:20470200000000000000000000000000000000000000000000000000000000000000000097
:0a472200000000000000000000008d
:20472c0000000000000000000000000000000000000000000000000000000000000000006d
:09474c0000000000000000000064
:20475500000000000000000000000000000000000000000000000000000000000000000044
:0a477500000000000000000000003a
:20477f0000000000000800000000000020000000000800000000000020000000000000804a
:09479f000000000000020000000f
:2047a8000000000000000000000000000000000000000000000000000000000000000000f1
:0a47c80000000000000000000000e7
:2047d2000000000000080000000000002000000000080000000000002000000000000080f7
:0947f200000000000002000000bc
:2047fb0000000000000000000000000000000000000000000000000000000000000000009e
:0a481b000000000000000000000093
:20482500000000000000000000000000000000000000000000000000000000000000000073
:094845000000000000000000006a
:20484e0000000000000000000000000000000000000000000000000000000000000000004a
:0a486e000000000000000000000040
:20487800000000000000000000000000000000000000000000000000000000000000000020
:0948980000000000000000000017
:2048a1000000000000000000000000000000000000000000000000000000000000000000f7
:0a48c10000000000000000000000ed
:2048cb000000000000000000000000000000000000000000000000000000000000000000cd
:0948eb00000000000000000000c4
:2048f4000000000000000000000000000000000000000000000000000000000000000000a4
:0a4914000000000000000000000099
:20491e00000000000000000000000000000000000000000000000000000000000000000079
:09493e0000000000000000000070
:20494700000000000000000000000000000000000000000000000000000000000000000050
:0a4967000000000000000000000046
:20497100000000000000000000000000000000000000000000000000000000000000000026
:094991000000000000000000001d
:20499a000000000000000000000000000000000000000000000000000000000000000000fd
:0a49ba0000000000000000000000f3
:2049c4000000000000000000000000000000000000000000000000000000000000000000d3
:0949e400000000000000000000ca
:2049ed000000000000000000000000000000000000000000000000000000000000000000aa
:0a4a0d00000000000000000000009f
:204a170000020000000000000000000000000000000000000000000000000000000000007d
:094a370000000000000000000076
:204a4000000000000000000000000000000000000000000000000000000000000000000056
:0a4a6000000000000000000000004c
:204a6a0000000000000000000000000000000000000000000000000000000000000000002c
:094a8a00800000000000000000a3
:204a93000000200000000000000000000000000000000000000000000000000000000000e3
:0a4ab30000000000000000000000f9
:204abd000000000000000000000000000000000000000000000000000000000000000000d9
:094add00000000000000000000d0
:204ae6000000000000000000000000000000000000000000000000000000000000000000b0
:0a4b060000000000000000000000a5
:204b1000000000000000000000000000000000000000000000000000000000000000000085
:094b3000800000000000000000fc
:204b390000000000000000000000000000000000000000000000000000000000000000005c
:0a4b59000000000000000000000052
:204b6300000000000000000000000000000000000000000000000000000000000000000032
:094b830000000000000000000029
:204b8c00000000000000000000000000000000000000000000000000000000000000000009
:0a4bac0008000000000000000000f7
:204bb6000000000000000000000000000000000000000000000000000000000000000000df
:094bd600000000000000000000d6
:204bdf000400000000000000000000000000000000000000000000000000000000000000b2
:0a4bff0000000000000000000000ac
:204c090080000000000000000000000000000000000000000000000000000000000000000b
:094c290000000000000000000082
:204c3200000000000000000000000000000000000000000000000000000000000000000062
:0a4c52000000000000000000000058
:204c5c00000000000000000000000000000000000000000000000000000000000000000038
:094c7c000000000000000000002f
:204c850004000000000000000000000000000000000000000000000000000000000000000b
:0a4ca5000000000000000000000005
:204caf000002000000000000000000000000000000000000000000000000000000000000e3
:094ccf00000000000000000000dc
:204cd8000000000000000000000000000000000000000000000000000000000000000000bc
:0a4cf80000000000000000000000b2
:204d0200000000000000000000000000000000000000000000000000000000000000000091
:094d220000000000000000000088
:204d2b00000020000000000000000000000000000000000000000000000000000000000048
:0a4d4b00000000000000000000005e
:204d550000000000000000000000000000000000000000000000000000000000000000003e
:094d750000000000000000000035
:204d7e00000000000000000000000000000000000000000000000000000000000000000015
:0a4d9e00000000000000000000000b
:204da8000000000000000000000000000000000000000000000000000000000000000000eb
:094dc800000000000000000000e2
:204dd1000000000000000000000000000000000000000000000000000000000000000000c2
:0a4df10000000000000000000000b8
:204dfb00000200000000000000000000000000000000000080000000000000000000000016
:094e1b000000000000000000008e
:204e240000000000000000000000000000000000000000000000000000000000000000006e
:0a4e44000000000000000000000064
:204e4e00000000000000000000000000000000000000000000003b1e900f0000806d3bc65e
:094e6e000000100000000000002b
:204e77000400000000000000000000000000000000000000000403de7a000000000d6d2f0f
:0a4e970060000300000000000000ae
:204ea1008000000000000000000000000000000000000000000000000000000010aa0c02a9
:094ec100000000000000000000e8
:204eca0000000000000000000000000000000000000000000000000000000000082aa7b13e
:0a4eea0063000000000005800000d6
:204ef4000000000000000000000000000000000000000000000000000000000018c63e047e
:094f140000000000000000000094
:204f1d0004000000000000000000000000000000000000000000000000000000002c2f72a3
:0a4f3d000600000000000000000064
:204f47000002000000000000000000000000000000000000000000000000000000b65ac276
:094f670000000000000000000041
:204f7000000000000000000000000000000000000000000000000000000000000045e7f104
:0a4f900060000000000000000000b7
:204f9a0000000000000000000000000000000000000000000000000000000000000f3fd4d5
:094fba00200000000000000000ce
:204fc3000000200000000000000000000000000000000000000000000001a0002168ed3c5b
:0a4fe30000000000000000000000c4
:204fed000000000000000000000000000000000000000000000000000000000000030000a1
:09500d0040000000000000010059
:20501600000000000000000000000000000000000000000000000000000000002c00358099
:0a50360067800000000000001c006d
:2050400000000000000000000000000000000000000000000000000005000000000206c083
:0950600000000002803000000095
:20506900000000000000000000000000000000000000000000000000008000000500077c1f
:0a50890000000600281c8000000053
:205093000002000000000000000000000000000000000000200000000000000000005ac0c1
:0950b300000000000000b0000044
:2050bc0000000000000000000000000000000000000000000100000000580000000027f064
:0a50dc00068000000000080000003c
:2050e6000000000000000000000000000000000000000000100022ccbd1000000000003ca3
:0951060000000201683c90000069
:20510f0040000000000000000000000000000000000000000000011ee119c0000000000166
:0a512f00c600001038958800000c3f
:20513900000000000000000000000000000000000000000000003282f980200010a0080051
:0951590040004001817a110001bf
:20516200000000000000000000000000000000000000000000030314c1500000000a0120d7
:0a51820006000000342de80e0000c6
:20518c00000000000000000000000000000000000000000000000140bd19000000af0a042f
:0951ac00380000429c4a0000009a
:2051b5000000000000000000000000000000000000000000000002bde900a0080000533cfb
:0a51d50002430021a93db0000000d4
:2051df00000200000000000000000000000000000000000000002a83a080000000ca0bac60
:0951ff00020040005029380001b3
:205208000000000000000000000000000000000000000000000002957f780000240c5786eb
:0a522800020000110a0c191a000020
:205232000000000000000000000000000000000000000000000022c0dd10000000aa06409d
:0952520040050003e40f00f00028
:20525b0000002000000000000000000000000000000000000005011c60808000000a55a88a
:0a527b004680201037ddb019000056
:205285000000000000000000000000000000000000000000000017c1900010000000f2c2dd
:0952a50022000003554a0100003b
:2052ae000000000000000000000000000000000000000000000000147b00000001004d34cf
:0a52ce00e00000003ab6071c0000e3
:2052d8000000000000000000000000000000000000000000000000000718000000403b001c
:0952f80040000003e7cf91000023
:205301000000000000000000000000000000000000000000000000000001f00000080f8004
:0a532100e680000037ddb008001838
:20532b00000000000000000000000000000000000000000080043b2ef00f0c00104437409f
:09534b000000000042e90000002e
:205354000000000000000000000000000000000000000000000002ffdc001000000bbbe5a1
:0a53740042800040020c9018000473
:20537e00002c00000000000000000000000000000000000000000000000080040047038095
:09539e0000201001d42d000000d4
:2053a70044004000000000000000000000000000000000000000000000000000c408b500e1
:0a53c700000003100685e018000c3a
:2053d1008000000000000000000000000000000000000000000000000000001000a20b403f
:0953f10020024003364c0001418a
:2053fa000000000000000000000000000000000000000000000000000001800a040f11e8fc
:0a541a00c600400017ec90000000ef
:205424000c00000000000000000000000000000000000001000000000700000000789b0041
:09544400800000034cd801900027
:20544d0004c00000000000000000000000000000000000000000000000000000000de73c4b
:0a546d00031200003c4f80180000fd
:2054770000000000000000000000000000000000000000000000000000000010009fd7840b
:09549700000040020018f00001c1
:2054a000000000000000000000000000000000000000000000000000000000000007e3b052
:0a54c000c0000010000fbf980000ac
:2054ca000000000000000000000000000000000000000000000000000000004000c39b0024
:0954ea00200000000c205000001d
:2054f30000000000000000000000000000000000000000000000000000000000202c673caa
:0a5513000040001000d4080008005a
:20551d00083c00000000000000000000000000000000000000000000000800000000000022
:09553d0040002003be4c080000f0
:205546008480400000000000000000000000000000000000000000000000100000000000f1
:0a556600660002001b6c9380000c2d
:20557000800000000000000000000000000000000000000600022a810000800100af9b001d
:09559000000002030cd890e000b9
:20559900000000000000000000000000000000000000000000004aa9dc000015a028073d02
:0a55b90060000601b10f8000001829
:2055c300000000000000000000000000000000000000000000201540d0000000000000245f
:0955e300010000037a4c71000084
:2055ec00040000000000000000000000000000000000000000082aa941000000400000003f
:0a560c00602000043f2c9808000005
:20561600000000000000000000000000000000000000000000000002c000400408000a80dc
:095636002c2010000000f000001f
:20563f00040000000000000000000000000000000000000000010010497802c0cc0407f1eb
:0a565f0067e02300000000001800bf
:205669008000000000000000000000000000000000000003000003c2c0080000003c038052
:09568900600004402808700208ca
:205692000000000000000000000000000000000000000000000002bc4879c0000401c3747d
:0a56b20003c00020015613984100c8
:2056bc000c0000000000000000000000000000000000000000022e020110804000c00800f7
:0956dc006e02000202f81100c088
:2056e5000480000000000000000000000000000000000001000102e0e8808000040c0580c0
:0a570500038240001297c51e000049
:20570f00000200000000000000000000000000000000000000003c02c108000000ecd24073
:09572f003c0000413c3e9080006a
:205738000000000000000000000000000000000000000000600003d448808000000f77b894
:0a57580007800010034eef800000f0
:205762000040000000000000000000000000000000000020002416d49000004200af5600e2
:0957820026000003e0db90f400b6
:20578b000003b0000000000000000000000000000000000280000a91c800000010285f29a6
:0a57ab00c02800003eb6c59b900028
:2057b5000838000000000000000000000000000000000000000038fcf00d1800000000004b
:0957d50024000000236d7005c0e2
:2057de000480400000000000000000000000000000000000000003c4cf0010000000000041
:0a57fe006740000012ac90000000ac
:205808008000000000000000000000000000000000000000000011c290000042000f7b8051
:09582800000000000c3b71a4001b
:2058310000000000000000000000000000000000000000000001022cc00000018868e12c6a
:0a5851000003061009dc901e0000a1
:20585b000002000000000000000000000000000000000000800027fcfb1b000000ad32bcd7
:09587b0001000000025cb100080c
:205884000400000000000000000000000000000000000000000001f8cf99c080686207bad4
:0a58a400072000000067e81801006b
:2058ae000000000000000000000000000000000000000000002429f58000e1c400809e0451
:0958ce00268010403dfe00800020
:2058d700400000000000000000000000000000000000000000000a91df180618c000093dbb
:0a58f70066942300a396d700000c6e
:205901000000000000000000000000000000000000000000000631ac018e00008080bbc297
:09592100000002417c0d70e00061
:20592a00000000000000000000000000000000000000000000020b1a6ed9f00000000330cc
:0a594a0060000020a81eb8010080d4
:205954000000000000000000000000000000000000000000000036c4c100200000a6541648
:0959740040000020082c11000085
:20597d000000000000000000000000000000000000000000000218920f818400086a6db2b9
:0a599d0066002070004e181c000088
:2059a700000200000000000000000000000000000000000000002041f000000000001b7cf6
:0959c70001300010002f700000f7
:2059d00000000000000000000000000000000000000000000003039c0f018000000103f58c
:0a59f00046a80020015cf81e00002c
:2059fa0000000000000000000000000000000000000000000000018fc00b08000820b71437
:095a1a002a8100000000000000d8
:205a23000000300000000000000000000000000000000000000000027c70000000000ff640
:0a5a43000254000000000180000082
:205a4d00000000000000000000000000000000000000000000001540d7000000801a7a40b9
:095a6d0000000200fc2f70900003
:205a7600000000000000000000000000000000000000000000000000ed000000000a1b7c82
:0a5a9600000000123f5dd800000080
:205aa000000000000000000000000000000000000000000000222644c700200018e70ae486
:095ac00020800000143b00f000fe
:205ac90000000000000000000000000000000000000000000000099a0000e40d840ef1e7bf
:0a5ae900665006003c05e0011818a5
:205af30000020000000000000000000000000000000000000000103cb00000000010fbc4c6
:095b1300242000000258f00000fb
:205b1c000000000000000000000000000000000000000000000000016d00080040800fe044
:0a5b3c0000200100008cb0000004fe
:205b4600000000000000000000000000000000000000000000003164d70e0040008b028276
:095b660020001813687d00d00036
:205b6f0044000000000000000000000000000000000000000000433dca8000880444778041
:0a5b8f00e64003208965950f0c0c19
:205b99008000000000000000000000000b00000000000000000206350000000000fc5200d6
:095bb90020000002802af00080a7
:205bc20000000000000000000000000000b8000000000000000200621801840200058bfc7c
:0a5be20000400020140e1000000027
:205bec000800000000000000000000000000000000000000000216c0800b000000f00394a7
:095c0c00380200016ddf00000008
:205c15000480000000000000000000000000000000000000000102846c000000000505e40a
:0a5c350002874001a93f818a0000a8
:205c3f00000200000000000000000000000000000000000000001bc4bf8e0000804d924078
:095c5f00000000162c50010000a9
:205c68000000000000000000000000000000000000000000000003c06c50f0140068ef80c2
:0a5c880006000021a2f7a00e08009c
:205c9200000000000000000000000000000000000000000000013c02fd900000988d0824d5
:095cb20002800001376e988000a9
:205cbb000000200000000000000000000000000000000000000002807b51c1c00408d57287
:0a5cdb0006930000a3b41d19000099
:205ce500004000000000000000000000000000000000000000000303a01000000000b602f1
:095d050028800000941f0000003a
:205d0e000003800000000000000000000000000000000000000122344c79a00000080be83b
:0a5d2e0060400010168cf1800000a8
:205d38000000000000000000000000000000000000000000000037c1ed0a008000df1f944a
:095d580028000000283a91900097
:205d610000000000000000000000000000000000000000000001033ced50f080000e3fa048
:0a5d810002c006000015b80b0c3834
:205d8b00000200000000000000000282f00000000000000080000427af0f20029105027ce3
:095dab0020000000000b100800ac
:205db400000000000000000000001015c00000000000000000002001fb58ba00002af73665
:0a5dd40000400100014fb000000480
:025dde000000c3
:035de00062003f1f
:035de300720080cb
:025de6001100aa
:035de80082000036
:025deb000103b2
:085ded000000000000000000ae
:085df5000000000000000000a6
:085dfd0000000000000000009e
:085e0500000000000000000095
:0261ed000000b0
:0361ef00820080ab
:0261f2000103a7
:0861f4000000000000000000a3
:0861fc0000000000000000009b
:08620400000000000000000092
:08620c0000000000000000008a
:0265f4000000a5
:0265f600110191
:0365f8008200001e
:0265fb0001039a
:0865fd000c000000000000008a
:086605000c0000000000000081
:08660d000c0000000000000079
:086615000c0000000000000071
:08661d000c0000000000000069
:086625000c0000000000000061
:08662d000c0000000000000059
:086635000c0000000000000051
:08663d000c0000000000000049
:086645000c0000000000000041
:08664d000c0000000000000039
:086655000c0000000000000031
:08665d000c0000000000000029
:086665000c0000000000000021
:08666d000c0000000000000019
:086675000c0000000000000011
:08667d000c0000000000000009
:086685000c0000000000000001
:08668d000c00000000000000f9
:086695000c00000000000000f1
:08669d000c00000000000000e9
:0866a5000c00000000000000e1
:0866ad000c00000000000000d9
:0866b5000c00000000000000d1
:0866bd000c00000000000000c9
:0866c5000c00000000000000c1
:0866cd000c00000000000000b9
:0866d5000c00000000000000b1
:0866dd000c00000000000000a9
:0866e5000c00000000000000a1
:0866ed000c0000000000000099
:0866f5000c0000000000000091
:0866fd000c0000000000000089
:086705000c0000000000000080
:08670d000c0000000000000078
:086715000c0000000000000070
:08671d000c0000000000000068
:086725000c0000000000000060
:08672d000c0000000000000058
:086735000c0000000000000050
:08673d000c0000000000000048
:086745000c0000000000000040
:08674d000c0000000000000038
:086755000c0000000000000030
:08675d000c0000000000000028
:086765000c0000000000000020
:08676d000c0000000000000018
:086775000c0000000000000010
:08677d000c0000000000000008
