:02000000ff00ff
:080002004c6174746963650030
:17000a00694345637562653220323031372e30382e32373934300069
:16002100506172743a2069434534304858314b2d545131343400fc
:1b003700446174653a2046656220323520323032302030373a30383a33310097
:0200520000ffad
:040054007eaa997e69
:02005800510055
:02005a0001059e
:03005c00920020ef
:03005f0062014bf0
:0300620072009099
:0300650082000016
:02006800110085
:02006a00010192
:20006c00000000000000000000000000000000000000000000000000000000000000000074
:09008c000000000000000000006b
:2000950000000000000000000000000000000000000000000000000000000000000000004b
:0a00b5000000000000000000000041
:2000bf00000000000000000000000000000000000000000000000000000000000000000021
:0900df00000000400000000000d8
:2000e8000000000000000000000000000000000000000000000000000000000000000000f8
:0a01080000000000000000000000ed
:200112000000000000000000000000000000000000000000000000000000000000000000cd
:09013200000000000000000000c4
:20013b000000000000000000000000000000000000000000000000000000000000000000a4
:0a015b00000000000000000000009a
:200165000000000000040000000000001000000000000040000000001000000000000040d6
:0901850000000000000000000071
:20018e00000000000000000000000000000000000000000000000000000000000000000051
:0a01ae00000000080000000000003f
:2001b800000000000004000000000000100000000000004000000000100000000000004083
:0901d8000000000000010000001d
:2001e1000000000000000000000000000000000000000000000000000000000000000000fe
:0a02010000000000000000000000f3
:20020b000000000000000000000000000000000000000000000000000000000000000000d3
:09022b00000000000000000000ca
:200234000000000000000000000000000000c00000000000000000000000000000000000ea
:0a02540000000000000000000000a0
:20025e00000000000000000000000070000000000000000000000000000000000000000010
:09027e0000000000000000000077
:200287000000000000000000000000008000000000000000000000000000000000000000d7
:0a02a700000000000000000000004d
:2002b10000000000000000000000000000000000000000000000000000000000000000002d
:0902d10000000000000000000024
:2002da00000000000000000000000000000000000000000000000000000000000000000004
:0a02fa0000000000000000000000fa
:200304000000000000000000000000000000000000000000000000000000000000000000d9
:09032400000000000000000000d0
:20032d00000000000000000000000000000000000040000000000000000000000000000070
:0a034d0000000000000000000000a6
:20035700000200000000000000000000000000000000000000000000000000000000000084
:090377000000000000000000007d
:2003800000000000000000000000000000000000000000000000000000000000000000005d
:0a03a0000000000000000000000053
:2003aa00300300000000000000000000000000000000000000000000000000000000000000
:0903ca000000000000000000002a
:2003d3000300200000000000000000000000000000000000000000000000000000000000e7
:0a03f3000000000000000000000000
:2003fd000002000000000000000000000000000000000000000000000000000000000000de
:09041d00000000000000000000d6
:20042600000020000000000000000000000000000000000000000000000000000000000096
:0a04460000000000000000000000ac
:2004500000000000000000000000000000000000000000000000000000000000000000008c
:0904700000000000000000000083
:20047900000020000000000000000000000000000000000000000000000000000000000043
:0a0499000000000000000000000059
:2004a300000000000000000000000000000000000000000000000000000000000000000039
:0904c30000000000000000000030
:2004cc00000000000000000000000000000000000000000000000000000000000000000010
:0a04ec000000000000000000000006
:2004f6000000000000000000000000000000000000000000000000000000000000000000e6
:09051600000000000000000000dc
:20051f000000000000000000000000000000000000000000000000000000000000000000bc
:0a053f0000000000000000000000b2
:2005490000040000000000000000000000000000000000000000000000000000000000008e
:0905690000000000000000000089
:200572000002800000000000000000000000000000000000000000000000000000000000e7
:0a059200000000000000000000005f
:20059c0000010000000000000000000000000000000000000000000000000000000000003e
:0905bc0000000000000000000036
:2005c500000000000000000000000000000000000000000000000000000000000000000016
:0a05e500000000000000000000000c
:2005ef000003000000000000000000000000000000000000000000000000000000000000e9
:09060f00000000000000000000e2
:200618000000000000000000000000000000000000000000000000000000000000000000c2
:0a06380000000000000000000000b8
:20064200000000000000000000000000000000000000000000000000000000000000000098
:090662000000000000000000008f
:20066b0000002000000000000000000000000000000000000000000000000000000000004f
:0a068b000000000000000000000065
:20069500000200000000000000000000000000000000000000000000000000000000000043
:0906b5000000000000000000003c
:2006be0000000000000000000000000000000000000000000000000000000000000000001c
:0a06de000000000000000000000012
:2006e8000000000000000000000000000000000000000000000000000000000000000000f2
:09070800000000000000000000e8
:200711000000200000000000000000000000000000000000000000000000000000000000a8
:0a07310000000000000000000000be
:20073b0000000000000000000000000000000000000000000000000000000000000000009e
:09075b0000000000000000000095
:20076400000000000000000000000000000000000000000000000000000000000000000075
:0a078400000000000000000000006b
:20078e0000000000000000000000000000000000000000000000000000000000000000004b
:0907ae0000000000000000000042
:2007b700000000000000000000000000000000000000000000000000000000000000000022
:0a07d7000000000000000000000018
:2007e1000000000000000000000000000000000000000000000000000000000000000000f8
:09080100000000000000000000ee
:20080a000000000000000000000000000000000000000000000000000000000000000000ce
:0a082a0000000000000000000000c4
:200834000000000000000000000000000000000000000000000000000000000000000000a4
:090854000000000000000000009b
:20085d0000000000000000000000000000000000004000000000000000000000000000003b
:0a087d000000000000000000000071
:2008870000020000000000000000000000000000000000000000000000000000000000004f
:0908a70000000000000000000048
:2008b000000000000000000000000000000000000000000000000000000000000000000028
:0a08d000000000000000000000001e
:2008da000000000000000000000200000000000000000000000000000000000000000000fc
:0908fa00000000000000000000f5
:200903000000000000000000000000000000000000000000000000000000000000000000d4
:0a09230000000000000000000000ca
:20092d000002000000000000000000000000000000000000000000000000000000000000a8
:09094d00000000000000000000a1
:20095600000000000000000000000000000000000000000000000000000000000000000081
:0a0976000000000000000000000077
:20098000000000000000000000000000000000000000000000000000000000000000000057
:0909a0000000000000000000004e
:2009a90000002000000000000000000000000000000000000000000000000000000000000e
:0a09c9000000000000000000000024
:2009d300000000000000000000000000000000000000000000000000000000000000000004
:0909f30000000000000000ff01fb
:2009fc000000000000000000000000000000000000000000000000000000000000000000db
:0a0a1c00000000000000000ff200cf
:200a26000000000000000000000000000000000000000000000000000000000000000000b0
:090a4600000000000000000000a7
:200a4f00000000000000000000000000000000000000000000000000000000000000000087
:0a0a6f00000000000000000000007d
:200a790000000000000000000000000000000000000000000000000000000000000000005d
:090a99000000000800000000004c
:200aa200000000000000000000000000000000000000000000000000000000000000000034
:0a0ac200000000000000000000002a
:200acc000000000000000000000000000000000000000000000000001ea55500000d0012d3
:090aec00c0000000000000000041
:200af500000000000000000000000000000000000000000000000000002055404000180fc5
:0a0b1500684000000000000000002e
:200b1f0000000000000000000000000000000000000000000060000001af040000000b0097
:090b3f00000000000000000000ad
:200b48000000000000000000000000000000000000000000000000000010f040000001a0ac
:0a0b68000000000000000000000083
:200b720000000000000000000000000000000000000000000000020600e0f40000059a00e8
:090b92000000000000000000005a
:200b9b0000000000000000000000000000000000000000000000000400100f40400070b077
:0a0bbb000000000000000000000030
:200bc50000020000000000000000000000000000000000000000000635c2540000059a001e
:090be50000000000000000000007
:200bee0001000000000000000000000000000000000000000000000000ffe540000000b012
:0a0c0e0000000000000000000000dc
:200c18000000000000000000000000000000000000000000000000000000000000000ed3db
:090c380082000000000000000031
:200c4100000020000000000000000000000000000000000000020000000000000000000968
:0a0c61006c0000000000000000001d
:200c6b0000000000000000000000000000000000000000000000006061c65400000800bfc7
:090c8b00200080000000000000c0
:200c940000000000000000000000000000000000000000000000000020df9a400000b0bdfa
:0a0cb40080000000000000000000b6
:200cbe0000000000000000000000000000000000000000000000000060e5540000001c1b46
:090cde002000c00000000000002d
:200ce70000000000000000000000000000000000000000000002000022d0aa40000001e12d
:0a0d0700c000000000000000000022
:200d1100000000000000000000000000000000000000000000c0000075c80400000000566b
:090d3100b4c0c000000000000085
:200d3a0000000000000000000000000000000000000000000008000028ff0040000000002a
:0a0d5a00434c000000000000000000
:200d640000010000000000000000000036a5560000000000000000001daa000000001a005c
:090d84000000000014284000806a
:200d8d000000000000000000000000000060f04000400000000000002c20a0000000d000ba
:0a0dad00000000000026c000002036
:200db700000200000000000000600000000000000000000000600202a78a00018005001b84
:090dd700829006000000e8f080a3
:200de00000000000000000000000003c0000000000000000000000046e500000000008a04d
:0a0e0000802900000000020f00042a
:200e0a00000000000000000000400200000000000000000000400002979800010015989bcc
:090e2a0094100400003848f08027
:200e330000000000000000000008003c00000000000000000008000042f8000020030009ed
:0a0e5300688500c00000020f0000d7
:200e5d0000020000000000000000000000000000000000000000000634880020005d0a1a10
:090e7d00d410000c203848f0806c
:200e86004000000000000000000200003c00000000000000000200342ff00000080259090d
:0a0ea600e04920000044020f0000a4
:200eb0000000000000000000000000000000000000000000000000406f8054000000001788
:090ed000dc5000020003697441ca
:200ed9000000208000000000000200000000000008000000000200022850fa400800000d84
:0a0ef900abc1002000000cb1d000d6
:200f0300000000000000000000000000000000000000000000000140148a0000000000da15
:090f2300a0000000200400000001
:200f2c0000000000000000000000000000000000000000000000001403f000000000000797
:0a0f4c006400000002c34000000032
:200f56000000000000000000000000000000000000000000000000006de5042000018187fc
:090f7600849080000000000000de
:200f7f0000000000000000000002000000000000000000000002000021d01240080000897a
:0a0f9f004085002000000000000063
:200fa900000000000000000000c00000000000000000000000ca01404fa5060300080196c1
:090fc900c000000000000000005f
:200fd20000000000000000000008000000000000000000000008400020d0054820001085bd
:0a0ff20078800000000000000000fd
:200ffc000000000000000000000001e00000000000000000000000006ec080000008195acb
:09101c0010100001466400000000
:2010250000000000000000000000001400000000000000000000001422fb000000001081d5
:0a10450064690000000300000000d1
:20104f0000000000000000000000000004ea00000000000000600060368000258008180256
:09106f009550060020707f4740f7
:201078000000000000000000000000000010a0200000000000000c1400f0800000001003e5
:0a10980002a9200003c2c791d20094
:2010a20000000000000000000000000004081120000000000040000607aa000110050c03d5
:0910c20028000400007bda56400e
:2010cb000000000000000000000000000000810000000000000800002800a000228001050c
:0a10eb00014000400006bfda620079
:2010f500000200000000000000000000000000000000000000040202dea7142020001800e0
:091115001990808600007e47401d
:20111e000000000000000000000000000000000000000000000000042350f0400100700990
:0a113e00026500040002e7b1d200d0
:20114800000000000000000000000000000000000000000000000006beb424000001801357
:091168002000008c00380000009a
:2011710000002000000000000000000000000000000000000000000001dc1240000000010e
:0a119100a8000100000600000000a5
:20119b0000000000000000000000000000000000000000000000024665f0440000001fbe76
:0911bb00a000800000006aa00001
:2011c400000000000000000000000000000000000000000000000004204e38400000008b96
:0a11e400c000000000002d00001004
:2011ee0000000000000000000000000380000000000000000000000037d25400000000be43
:09120e00c1100000000400000002
:2012170000000000000000000000000040000000000000000000000001f8e5400000000b4e
:0a123700a02d60000002000000007e
:20124100000000000000000000000000000000000000000000c0156021e55403000000d625
:0912610050900020007000000014
:20126a0000000000000000000000000000000000000000000008008402c0aa402000000507
:0a128a00a48500000004000000002d
:20129400000000000000000000000000000000000001005800000000400000000001199aed
:0912b40002500000142949080051
:2012bd00000000000000000000000000000000000000000fb840003c380000000000f0871f
:0a12dd00f00c00000002a5b00000b4
:2012e7000000000000000000000000000000000180001e0000000203e68f5001800018776e
:09130700421006000001ea200278
:2013100000000028000000000000000000000000000001cf0000003c79f0a0000100000976
:0a1330006684000000000002028045
:20133a000000000000000000000000000000000300001e30000000031faf50000008001aff
:09135a0003d00c00147a480820ad
:20136300000000000000000000000000000000001000000d00400000005050000000100954
:0a138300c00000c001c68d900010ec
:20138d000402000000000000000000000000000000000080000001e7b7af520000881893e7
:0913ad008000000000615c0000fa
:2013b60000000000000000000000000000000000000000fb0000000265e0a0000430100be6
:0a13d60060800000000026b0400017
:2013e000000000000000000000000000000000000005019000000002800000000008001eaf
:091400008c10800000055c5f0007
:2014090000002000000000000000000000000000000000d9010000000000000000001009b0
:0a14290080a0000000030105f2009e
:201433000000000000000000000000000000000000059a800000000020fd100000000f82bc
:0914530017c0008020604adf038d
:20145c0000000000000000000000000000000000000050030000000001d9e20000000085dc
:0a147c0042bc00040040260ff000ff
:201486000000000000000000000000000000000000059f98000000e20de5a00000019a5aa1
:0914a60097c000041e3c0efc027c
:2014af0000000000000000000000000000000000000000a3808000020360aa000000000962
:0a14cf0003fc00000022010fc080a2
:2014d9000000000000000000000000000000000300038080000000003d8f500000218076ba
:0914f9009410800e1c03cc034288
:20150200000000000000000000000000000000003000009f0000002401c0a000000100096b
:0a1522004290200000002d03f0802d
:20152c000000000000e0203d000000000000000000010ed8200001e02ef0200000000173c8
:09154c00010008002402fe8000e9
:201555000000000000100403c0000000000000000040190dbc00000024fe0000000000b5a6
:0a157500f004000001c3efc0000005
:20157f000000180000000000000000000000000188058000007400463cef10203801005a7e
:09159f00bc40860020004e05123c
:2015a800000000000000000000000000000000000158080f0000a0024050f3000380f8f023
:0a15c80043c4000002401c04700040
:2015d2002000000000000000000000000000000300000110000000078fea500000070d3fa2
:0915f2008140000024794e5f00e5
:2015fb0001000000000000000000000000000000100000f1820000004000aa00000079e306
:0a161b004140000000600005f000ef
:201625000003000000000000000000000000000000000d000000020025c40020100181d721
:091645009fc080402002f8a702ba
:20164e0000000000000000000000000000000000000001970000001c03f0e500002000e1ef
:0a166e0043fc000283401400110049
:201678000004000000000000000000000000000000000118000000e00cef500008078edb92
:091698006000000000054e000096
:2016a10000024000000000000000000000000000000090f3002000000240a00000007009e9
:0a16c100b400000001c3340a000069
:2016cb0000000000000000000000000000000000000000000000a14640000000000701fed2
:0916eb00420000020066d8f7027b
:2016f40000000800000000000000000000000000000000010000001430000000000208ef90
:0a171400b118000002c2160a10040a
:20171e000000000000000000000000000000000000050a50000001660180f600000700f770
:09173e00e9c000000e005d6340eb
:2017470008000000000000000000000000000000000050978100006428100f00800090e176
:0a1767003eb4000003e025dc320070
:201771000000000000000000000000000000000300078080000003e71eb2500000081a72b0
:0917910026404c400007480551b8
:20179a00000000000000000000000000000000003038500700000014647a20000000f0fd71
:0a17ba006a6c0082a002ad0fa0804f
:0217c400000023
:0217c60011010f
:0217c80001011d
:2017ca000000000000000000000000000000000000000000000000000000000000000000ff
:0917ea00000000000000000000f6
:2017f3000000000000000000000000000000000000000000000000000000000000000000d6
:0a18130000000000000000000000cb
:20181d000000000000000000000000000000000000000000000000000000000000000000ab
:09183d000000000003000000009f
:20184600000000000000000000000000000000000000000000000000000000000000000082
:0a1866000000000000000000000078
:20187000000000000000000000000000000000000000000000000000000000000000000058
:091890000000000000000000004f
:2018990000000000000000000000000000000000000000000000000000000000000000002f
:0a18b9000000000000000000000025
:2018c300000000000004000000000000100000000000004000000000100000000000004061
:0918e300000000000001000000fb
:2018ec000000000000000000000000000000000000000000000000000000000000000000dc
:0a190c0000000000000000000000d1
:2019160000000000000400000000000010000000000000400000000010000000000000400d
:09193600000000000001000000a7
:20193f00000000000000000000000000000000000000000000000000000000000000000088
:0a195f00000000000000000000007e
:2019690000000000000000000000000000000000000000000000000000000000000000005e
:0919890000000000000000c00095
:20199200000000000000000000000000000000000000000000000000000000000000000035
:0a19b2000000000000000004000027
:2019bc0000000000000000000000000000000000000000000000000000000000000000000b
:0919dc0000000000000000000002
:2019e5000000000000000000000000000000000000000000000000000000000000000000e2
:0a1a050000000000000000000000d7
:201a0f000000000000000000000000000000000000000000000000000000000000000000b7
:091a2f00000000000000000000ae
:201a380000000000000000000000000000000000000000000000000000000000000000008e
:0a1a58000000000000000000000084
:201a6200000000000000000000000000000000000000000000000000000000000000000064
:091a82000000000000000000005b
:201a8b0000000000000000000000000000000000000000000000000000000000000000003b
:0a1aab000000000000000000000031
:201ab500000000000000000000000000000000000000000000000000000000000000000011
:091ad50000000000000000000008
:201ade000000000000000000000000000000000000000000000000000000000000000000e8
:0a1afe0000000000000000000000de
:201b08000000000000000000000000000000000000000000000000000000000000000000bd
:091b2800000000000000000000b4
:201b3100000000000000000000000000000000000000000000000000000000000000000094
:0a1b5100000000000000000000008a
:201b5b00000200000000000000000000000000000000000000000000000000000000000068
:091b7b0000000000000000000061
:201b8400000000000000000000000000000000000000000000000000000000000000000041
:0a1ba4000000000000000000000037
:201bae00000000000000000000000000000000000000000000000000000000000000000017
:091bce000000000000000000000e
:201bd7000000200000000000000000000000000000000000000000000000000000000000ce
:0a1bf70000000000000000000000e4
:201c01000000000000000000000000000000000000000000000000000000000000000000c3
:091c2100000000000000000000ba
:201c2a0000000000000000000000000000000000000000000000000000000000000000009a
:0a1c4a000000000000000000000090
:201c5400000000000000000000000000000000000000000000000000000000000000000070
:091c740000000000000000000067
:201c7d00000000000000000000000000000000000000000000000000000000000000000047
:0a1c9d00000000000000000000003d
:201ca70000000000000000000000000000000000000000000000000000000000000000001d
:091cc70000000000000000000014
:201cd0000000000000000000000000000000000000000000000000000000000000000000f4
:0a1cf00000000000000000000000ea
:201cfa000000000000000000000000000000000000000000000000000000000000000000ca
:091d1a00000000000000000000c0
:201d23000000000000000000000000000000000000000000000000000000000000000000a0
:0a1d43000000000000000000000096
:201d4d00000000000000000000000000000000000000000000000000000000000000000076
:091d6d000000000000000000006d
:201d760000000000000000000000000000000000000000000000000000000000000000004d
:0a1d96000000000000000000000043
:201da000000000000000000000000000000000000000000000000000000000000000000023
:091dc0000000000000000000001a
:201dc9000000000000000000000000000000000000000000000000000000000000000000fa
:0a1de90000000000000000000000f0
:201df3000002000000000000000000000000000000000000000000000000000000000000ce
:091e1300000000000000000000c6
:201e1c000000000000000000000000000000000000000000000000000000000000000000a6
:0a1e3c00000000000000000000009c
:201e460000000000000000000000000000000000000000000000000000000000000000007c
:091e660000000000000000000073
:201e6f00000020000000000000000000000000000000000000000000000000000000000033
:0a1e8f000000000000000000000049
:201e9900000000000000000000000000000000000000000000000000000000000000000029
:091eb90000000000000000000020
:201ec200000000000000000000000000000000000000000000000000000000000000000000
:0a1ee20000000000000000000000f6
:201eec000000000000000000000000000000000000000000000000000000000000000000d6
:091f0c00000000000000000000cc
:201f15000000000000000000000000000000000000000000000000000000000000000000ac
:0a1f350000000000000000000000a2
:201f3f0000000000000000000000000000000000040000000000000000000000000000007e
:091f5f0000000000000000000079
:201f6800000000000000000000000000000000000000000000000000000000000000000059
:0a1f8800000000000000000000004f
:201f920000000000000000000000000000000000000000000000000000000000000000002f
:091fb20000000000000000000026
:201fbb00000000000000000000000000000000000000000000000000000000000000000006
:0a1fdb0000000000000000000000fc
:201fe5000000000000000000000000000000000000000000000000000000000000000000dc
:09200500000000000000000000d2
:20200e000000000000000000000000000000000000000000000000000000000000000000b2
:0a202e0000000000000000000000a8
:20203800000000000000000000000000000000000000000000000000000000000000000088
:092058000000000000000000007f
:2020610000000000000000000000000000000000000000000000000000000000000000005f
:0a2081000000000000000000000055
:20208b00000200000000000000000000000000000000000000000000000000000000000033
:0920ab000000000000000000002c
:2020b40000000000000000000000000000000000000000000000000000000000000000000c
:0a20d4000000000000000000000002
:2020de000000000000000000000000000000000000000000000000000000000000000000e2
:0920fe00000000000000000000d9
:20210700000020000000000000000000000000000000000000000000000000000000000098
:0a21270000000000000000000000ae
:2021310000000000000000000000000000000000000000000000000000000000000000008e
:0921510000000000000000000085
:20215a00000000000000000000000000000000000000000000000000000000000000000065
:0a217a00000000000000000000005b
:2021840000000000000000000000000000000000000000000000000000000000000000003b
:0921a40000000000000000000032
:2021ad00000000000000000000000000000000000000000000000000000000000000000012
:0a21cd000000000000000000000008
:2021d7000000000000000000000000000000000000000000000000000000000000000000e8
:0921f700000000000000000000df
:202200000000000000000000000000000000000000000000000000000000000000000000be
:0a22200000000000000000000000b4
:20222a0000000000000000000000000000000000000000000080000034d2400000000000ce
:09224a000000000000000000008b
:202253000000000000000000000000000000000000000000000c000000414240800000001c
:0a2273000000000000000000000061
:20227d000000000000000000000000000000000000000000002200022f80b080000509d45c
:09229d003d4800000200000000b1
:2022a60000000000000000000000000000000000000000000000400606ea0440000099fb0a
:0a22c600ba9500000060000000005f
:2022d0000000000000000000000000000000000000000000000000020ddda0180000007cce
:0922f0001680000000000000004f
:2022f900000000000000000000000000000000000000000000000006665d2540000018037c
:0a231900681500000000000000003d
:20232300000200000000000000000000000000000000000000200000060f000090090900c1
:0923430000000200243dd9430012
:20234c0000000000000000000000000000000000000000000000000001da714202808010d1
:0a236c000000000003e00cae340096
:202376000000000000000000000000000000000000000000000000400fd000000005100013
:092396000000000000000000003e
:20239f00000020000000000000000000000000000000000000000020025d8000000000e01f
:0a23bf000000000000000000000014
:2023c90000000000000000000000000000000000000000000000000285bb200300000adea7
:0923e90020c00400003c000000cb
:2023f200000000000000000000000000000000000000000000000000600e71403000000d6f
:0a2412003b8d00c0000040000000f8
:20241c00000000000000000000000000000000000000000000000000340210000800105ae8
:09243c005c000000040000000037
:20244500000000000000000000000000000000000000000000060800000e1242180000eb04
:0a24650037c500600200000000000f
:20246f001800000000000000000000000000000004000000000001c386b00000000100df57
:09248f00a0c000000028d84300a1
:2024980000000000000000000000000000000000000000000000000001da8000000080a9a0
:0a24b8003b8d000000004cbe340014
:2024c2000000000000000000000000000000000000000000000003c2a605f00200000d008b
:0924e2003c0800000000000000ad
:2024eb0000000000000000000000000000000000000000000000000004caff40300000d0c4
:0a250b0063c10000000000000000a2
:2025150000000000000000000000000000000000000000000020002257de5000800000005f
:092535003c00020000000000005f
:20253e0000000000000000000000000000000000000000000000000c207ea460000001c00e
:0a255e006bc10000e0000000000067
:202568000000000000000000000000000000000000000000000000042fb04000000f0f0012
:092588003c00000000000000000e
:20259100000000000000000000000000000000000000000000000006724a00000000000068
:0a25b10073c10400000000000000e8
:2025bb00000200000000000000200000000000002800000000200022010a00008000800069
:0925db003c000200004000000079
:2025e400000000000000000000000000000000000100000000000016045aa0000000700052
:0a2604002bc10000000600000000da
:20260e00000000000000000000000000000000000000000000000042c00c0080000d00040d
:09262e003c000000000000000067
:20263700000020000000000000000000000000000000000000000020000ac00a00008000ef
:0a2657007bc100000000000000003d
:2026610008ac00000000000000000000000000004000000000c00022dc000083000b000415
:092681003c000400000000000010
:20268a000480000000000000000000000000000004380000000c001c28fa801230008000e4
:0a26aa007bc10040000000000000aa
:2026b40080000000000000000000000000000000000000000000034004c0800000030004f8
:0926d4003c0000000000000000c1
:2026dd00000000000000000000000000000000000000000000060014625800001800800071
:0a26fd0073c100600000000000003f
:2027070000020000000000000000000000000000000000000000016695de50000000000086
:092727003c000000003410f00831
:2027300004000000000000000000000000000000003000000000001439eea4400000000036
:0a27500033c10000000040cf060076
:20275a000000000000000000000000000000000000000000008002c004c00080000010b019
:09277a00020008000002cc9a08dc
:202783004000000000000000000000000000000000000000000c0020004a8000000001ef10
:0a27a300284108c00002a0d654042b
:2027ad000000000000000000000000000000000000000000000000002e00000000000008d6
:0927cd001000100000297d5000ed
:2027d60080000000000000000000000000000000000000000000000600dea00000001803c4
:0a27f600a900080000007dc40000e7
:202800000000000000000000000003c0000f0200000000000000000236021000000009deb3
:09282000a00000000200caf0084b
:20282900000000000000000000000000001cf040000000000000000004fa50430000018130
:0a284900a400000001c62da7160030
:202853002000400000000000000000000000000000000000000000075e900000020000000e
:09287300000000003c23e0000815
:20287c00010000000000000000000000000000000000000000000004204a800100800000cc
:0a289c0000000000004064c20020ac
:2028a60000000000000000000000000000000000000000000000000024b2400010050004e3
:0928c6003c000000000010f500c8
:2028cf000000300000000000000000000000000000000000000000060000184000800000db
:0a28ef007bc10010006016cf5000fe
:2028f900000000000000000000000000000000000000000000000062e6b1a00000210a906b
:092919000a0000000420d0e208cd
:2029220080000000000000000000000000000000000000000000002e614a40400000d000ec
:0a29420028510800100040ad1420d9
:20294c00000000000000000000000000000000000000000000000000169f000000000a9c10
:09296c00028010000000faf000e6
:20297500000000000000000000060000000000000000000000060000004e71411800000717
:0a299500f0000060000024c71000ed
:20299f000000000000000000000000000000000004000000000009420205500000000870fa
:0929bf0000000000007ee9880020
:2029c800000000000000000000000000000000000000000000000014644a55400000019502
:0a29e80001690080100704c22000fe
:2029f20000000000000000000000000000000000000000000040000000000000000708fa7c
:092a12000f00400006417bf100b9
:202a1b00000000000000000000000000000000000000000000040000000000000000d00bbc
:0a2a3b0078d0000001c63ed700006d
:202a4500000000000000000000000000000000000000000000000042000a00001080085f2e
:092a650041000000002a400100bc
:202a6e0000000000000000000000000000000000000000000000002604faa0000000001173
:0a2a8e006c09000000006dc070200c
:202a9800000000000000000000000000000000000000000000000003a5ae5080000008767a
:092ab800ffc000000003505000b3
:202ac100000000000000000000000000000000000000000000000006037d25400000001ded
:0a2ae1006f9420000146a1ea0000f6
:202aeb000002000000000000000000000000000000000000000000002d0f508000000a5a59
:092b0b000000004002687ef300a6
:202b14000000000000000000000000000000000000000000000020000378054000000005bc
:0a2b3400a449000805c38cff7000df
:202b3e00000000000000000000000000000000000000000000400040010f510010000b0873
:092b5e003c00000026385e000076
:202b67000000200000000000000000000000000008000000000c0026007cf5000000008300
:0a2b8700a3c2000a0267f6980010ce
:202b91000000000000000000000000000000000000000000000000002d0aa08008008b58e2
:092bb10001400000040050a000e6
:202bba00000000000000000000000000000000000000000000000000020e5540810050077e
:0a2bda002143000001e727c050006e
:202be4000000000000000000000000000000000000000000000000443d0f5080000110025e
:092c04007c000000263e6ad900a4
:202c0d0000000000000000000000000000000000000000000006000029dc0540180080a01f
:0a2c2d0027c20000434014aa5080a3
:202c37000000000000000000000000000000000000000000000000002dee5000000d000afb
:092c570000000000342f5bd500e1
:202c600000000000000000000000000000000000000000000000000003ce25480000798518
:0a2c80000002000000039490000819
:202c8a000000000000000000000000000000000000000000008000000000000000008c50ce
:092caa0029400000020060f00066
:202cb3000000000000000000000000000000000000000000000c000000000000000038b00d
:0a2cd3000169400001c02cca000096
:202cdd0000000000000000000000000000000000038000000000000000000000000700004d
:092cfd00000000a00001e0ff014d
:202d060000000000000000000000000000000000000000000000000000000000000099e034
:0a2d2600000000040067b5a40020bf
:202d300000280000000000000000000000000000000000000000000340000000000f09d729
:092d5000e0000000340010e20074
:202d590000004000000000000000000000000000000000000000000004000000000001c94c
:0a2d79003c040000020007ae202019
:202d83000002000000000000000000000000000000000000000000402c9e500010000f7441
:092da30030c000002c2adcc30042
:202dac00000000000000000000000000000000000000000000000026036d2540000000010b
:0a2dcc002b4c0800020647ad100072
:202dd600000000000000000000000000000000000000000000000040270da000000f0f9219
:092df600a0000000342c00f000e4
:202dff00400020000000000000000000000000000018000000000020007c25420000000732
:0a2e1f00f6800000000600af04007a
:202e2900100000000000000000000000000000000000000000c00006c00a0000000309bf1e
:092e4900f7c000000124f0a510ff
:202e5200030000000000000000000000000000000004000000040000296ca0000000b00967
:0a2e7200ad38000000466c87f02028
:202e7c00000000000000000000000000000000000000000000000362c5cc300000001a579f
:092e9c00828000001e3830a00005
:202ea500000000000000000000000000000000000000000000060014027c6340180000edcd
:0a2ec500707400600267c6ea0000a6
:202ecf00000000000000000000000000000000002c0000000000236005cc3004000f80bee2
:092eef004602000680037e50102b
:202ef800000000000000000000000000000000000000000000000014604a6340000011e365
:0a2f1800fc20000010078582000075
:022f22000000ad
:022f2400110298
:022f26000101a7
:202f2800000000000000000000000000000000000000000000000000000000000000000089
:092f480000000000000000000080
:202f5100000000000000000000000000000000000000000000000000000000000000000060
:0a2f71000000000000000000000056
:202f7b00000000000000000000000000000000000000000000000000000000000000000036
:092f9b000000000000000000002d
:202fa40000000000000000000000000000000000000000000000000000000000000000000d
:0a2fc4000000000000000000000003
:202fce000000000000000000000000000000000000000000000000000000000000000000e3
:092fee00000000000000000000da
:202ff7000000000000000000000000000000000000000000000000000000000000000000ba
:0a30170000000000000000000000af
:203021000000000000080000000000002000000000080000000000002000000000000080bf
:0930410000000000000200000084
:20304a00000000000000000000000000000000000000000000000000000000000000000066
:0a306a00000000000000000000005c
:2030740000000000000800000000000020000000000800000000000020000000000000806c
:0930940000000000000200000031
:20309d00000000000000000000000000000000000000000000000000000000000000000013
:0a30bd000000000000000000000009
:2030c7000000000000000000000000000000000000000000000000000000000000000000e9
:0930e700000000000000000000e0
:2030f0000000000000000000000000000000000000000000000000000000000000000000c0
:0a31100000000000000000000000b5
:20311a00000000000000000000000000000000000000000000000000000000000000000095
:09313a000000000000000000008c
:2031430000000000000000000000000000000000000000000000000000000000000000006c
:0a3163000000000000000000000062
:20316d00000000000000000000000000000000000000000000000000000000000000000042
:09318d0000000000000000000039
:20319600000000000000000000000000000000000000000000000000000000000000000019
:0a31b600000000000000000000000f
:2031c0000000000000000000000000000000000000000000000000000000000000000000ef
:0931e000000000000000000000e6
:2031e9000000000000000000000000000000000000000000080000000000000000000000be
:0a32090000000000000000000000bb
:2032130000000000000000000000000000000000000000000000000000000000000000009b
:0932330000000000000000000092
:20323c00000000000000000000000000000000000000000000000000000000000000000072
:0a325c000000000000000000000068
:20326600000000000000000000000000000000000000000000000000000000000000000048
:093286000000000000000000003f
:20328f0000000000000000000000000000000000000000000000000000000000000000001f
:0a32af000000000000000000000015
:2032b9000002000000000000000000000000000000000000000000000000000000000000f3
:0932d900000000000000000000ec
:2032e2000000000000000000000000000000000000000000000000000000000000000000cc
:0a33020000000000000000000000c1
:20330c000000000000000000000000000000000000000000000000000000000000000000a1
:09332c0000000000000000000098
:20333500000020000000000000000000000000000000000000000000000000000000000058
:0a335500000000000000000000006e
:20335f0000000000000000000000000000000000000000000000000000000000000000004e
:09337f0000000000000000000045
:20338800000000000000000000000000000000000000000000000000000000000000000025
:0a33a800000000000000000000001b
:2033b2000000000000000000000000000000000000000000000000000000000000000000fb
:0933d200000000000000000000f2
:2033db000000000000000000000000000000000000000000000000000000000000000000d2
:0a33fb0000000000000000000000c8
:203405000000000000000000000000000000000000000000000000000000000000000000a7
:093425000000000000000000009e
:20342e0000000000000000000000000000000000000000000000000000000000000000007e
:0a344e000000000000000000000074
:20345800000000000000000000000000000000000000000000000000000000000000000054
:093478000000000000000000004b
:2034810000000000000000000000000000000000000000000000000000000000000000002b
:0a34a1000000000000000000000021
:2034ab00000000000000000000000000000000000000000000000000000000000000000001
:0934cb00000000000000000000f8
:2034d4000000000000000000000000000000000000000000000000000000000000000000d8
:0a34f40000000000000000000000ce
:2034fe000000000000000000000000000000000000000000000000000000000000000000ae
:09351e00000000000000000000a4
:20352700000000000000000000000000000000000000000000000000000000000000000084
:0a354700000000000000000000007a
:20355100000200000000000000000000000000000000000000000000000000000000000058
:0935710000000000000000000051
:20357a00000000000000000000000000000000000000000000000000000000000000000031
:0a359a000000000000000000000027
:2035a400000000000000000000000000000000000000000000000000000000000000000007
:0935c400000000000000000000fe
:2035cd000000200000000000000000000000000000000000000000000000000000000000be
:0a35ed0000000000000000000000d4
:2035f7000000000000000000000000000000000000000000000000000000000000000000b4
:09361700000000000000000000aa
:2036200000000000000000000000000000000000000000000000000000000000000000008a
:0a3640000000000000000000000080
:20364a00000000000000000000000000000000000000000000000000000000000000000060
:09366a0000000000000000000057
:20367300000000000000000000000000000000000000000000000000000000000000000037
:0a369300000000000000000000002d
:20369d0000000000000000000000000000000000000000000000000000000000000000000d
:0936bd0000000000000000000004
:2036c6000000000000000000000000000000000000000000000000000000000000000000e4
:0a36e60000000000000000000000da
:2036f0000000000000000000000000000000000000000000000000000000000000000000ba
:09371000000000000000000000b0
:20371900000000000000000000000000000000000000000008000000000000000000000088
:0a3739000000000000000000000086
:20374300000000000000000000000000000000000000000000000000000000000000000066
:093763000000000000000000005d
:20376c0000000000000000000000000000000000000000000000000000000000000000003d
:0a378c000000000000000000000033
:20379600000000000000000000000000000000000000000000000000000000000000000013
:0937b6000000000000000000000a
:2037bf000000000000000000000000000000000000000000000000000000000000000000ea
:0a37df0000000000000000000000e0
:2037e9000002000000000000000000000000000000000000000000000000000000000000be
:09380900000000000000000000b6
:20381200000000000000000000000000000000000000000000000000000000000000000096
:0a383200000000000000000000008c
:20383c0000000000000000000000000000000000000000000000000000000000000000006c
:09385c0000000000000000000063
:20386500000020000000000000000000000000000000000000000000000000000000000023
:0a3885000000000000000000000039
:20388f00000000000000000000000000000000000000000000000000000000000000000019
:0938af0000000000000000000010
:2038b8000000000000000000000000000000000000000000000000000000000000000000f0
:0a38d80000000000000000000000e6
:2038e2000000000000000000000000000000000000000000000000000000000000000000c6
:09390200000000000000000000bc
:20390b0000000000000000000000000000000000000000000000000000000000000000009c
:0a392b000000000000000000000092
:20393500000000000000000000000000000000000000000000000000000000000000000072
:0939550000000000000000000069
:20395e00000000000000000000000000000000000000000000000000000000000000000049
:0a397e00000000000000000000003f
:203988000000000000000000000000000000000000000000000000000300000002aa7a8076
:0939a80000001000000000000006
:2039b10000000000000000000000000000000000000000000000000000080000200aa080a4
:0a39d10000000000000000000000ec
:2039db00000000000000000000000000000020000000000000000000000000180000000094
:0939fb000400600000000000005f
:203a04000000000000000000000000000000000000000000000000000000000000000000a2
:0a3a24000300000000000000000095
:203a2e00000000000000000000000000000000000000000000000000000000000000000078
:093a4e000400000000000000006b
:203a570000000000000000000000000000000000000000000000000000000000000000004f
:0a3a7700020500000000000000003e
:203a8100000200000000000000000000000000000000000000000000000000000000000023
:093aa1000000000000000000001c
:203aaa000000000000000000000000000000000000000000000000000000000000000000fc
:0a3aca0000000000000000000000f2
:203ad4000000000000000000000000000000000000000000000000000000000000000000d2
:093af40000004000000000000089
:203afd00000020000000000000000000000000000000000000000000000000010000000088
:0a3b1d00000004000000000000009a
:203b270000000000000000000000000000000000000000000000000000000000000000007e
:093b470000000000000000000075
:203b5000000000000000000000000000000000000000000000000000000000000000000055
:0a3b7000000000000000000000004b
:203b7a000000000000000000000000000000000000000000000083c40000000000000000e4
:093b9a0000000000000000000022
:203ba30000000000000000000000000000000000000000000002003c2000000000000000a4
:0a3bc30000000000000000000000f8
:203bcd000000000000000000000000000000000000000000000000000000000000000020b8
:093bed00000020000000000000af
:203bf6000000000000000000000000000000000000000000000000000000000000000002ad
:0a3c1600c0000200000000000000e2
:203c200000000000000000000000000000000000000000000000c3f6a5000000003c7ad49c
:093c400028000000054d00000001
:203c49004000000000000000000000000000000000000000080023c1c00800000001c1782d
:0a3c6900664000040034b0000000c3
:203c73000000000000000000000000000000000000000000000043c5c000015840ad1340d0
:093c93002800000b19fa000001e1
:203c9c008000000000000000000000000000000000000000000a03c00000b008000ff0ac58
:0a3cbc000400002030cfa00010002b
:203cc6000000000000000000000000000000000000000000004043c48001000040c3760697
:093ce60000000003194d18100044
:203cef000000000000000000000000000000000000000000000003c010008000090c70af2e
:0a3d0f004000000030f4b00900008d
:203d1900000200000000000000000000000000000000000000002a8580010000002ebba0cf
:093d39000000010a8dea180000e7
:203d42000000000000000000000000000000000000000000100012a80000a0000001cf76b1
:0a3d6200c000000228c300000000aa
:203d6c00000000000000000000000000000000000000000000a083cc0018000004ff725467
:093d8c00040000000000018000a9
:203d950000002000000000000000000000000000000000000000003c000000010005f0308c
:0a3db50003c004000000000000102d
:203dbf00000000000000000000000000000000000000000000000000000100000000f3c42c
:093ddf002400000000001800009f
:203de8000000000000000000000000000000000000000000000000000000800000001b78a8
:0a3e080026800000000003092000de
:203e12000000000000000000000000000000000000000000000000000000000144003a44cd
:093e320024000200435c000000c2
:203e3b000000000000000000000000000000000000000000000000000000000100080079e5
:0a3e5b00e6800400002db000001006
:203e6500000000000000000000000000000000000000000000000000001e408c00d1bba027
:093e85002400080a81fa5000141f
:203e8e00c0000000000000000000000000000000000000000000000000000a14404e3f77f2
:0a3eae00c7c000002bc3a00000886d
:203eb80000000000000000000000000000000000000000000000840ed19c0000002ede805f
:093ed80028000002915c000000ca
:203ee100400000000000000000000000000000000000000000000003ef5100000001c57cfc
:0a3f01000600000016ece00b0000c3
:203f0b0000000000000000000000000000000000000000000000281fd0010158005076c09f
:093f2b000000010a8dee00000502
:203f34008000000000000000000000000000000000000000000040002a008000000403bc40
:0a3f54000000000028c200000080f9
:203f5e0000000000000000000000000000000000000000000000014e950000000005578083
:093f7e000404000b195d000000b1
:203f870000000000000000000000000000000000000000000000203c18000000000000a303
:0a3fa7004200208230ecf00a000016
:203fb1000002000000000000000000000000000000000000000083c40001080000057b40de
:093fd1007c020000000000000069
:203fda0000000000000000000000000000000000000000000000603c2000d00800000036fd
:0a3ffa0042405000000000000000eb
:20400400000000000000000000000000000000000000000000a1a940001e0000005a3e80dc
:094024007c000002bdee800000ea
:20402d000000200000000000000000000000000000000000000001680b310000000fa0a35c
:0a404d00468000020282e10000003c
:204057000000000000000000000000000000000000000000000083d4010a40804080769e53
:094077000000000015cc18f20055
:2040800000000000000000000000000000000000000000000000003c20019a100008008091
:0a40a000238000000141000f4000e2
:2040aa00000000000000000000000000000000000000000000000000079c000040a5521606
:0940ca000000010238ea01800047
:2040d30000000000000000000000000000000000000000000000000000080000000da034e4
:0a40f3000000000003c28009000075
:2040fd0000000000000000000000000000000000000000000000295cc7801c8cc0a33fbcd1
:09411d007802010a8de15800004e
:20412600c000000000000000000000000000000000000000000042a818000010410a3041eb
:0a414600e640002414c2d100000876
:20415000000000000000000000000000000000000000002800001ce7950a00000000f2266d
:094170000000000014faf0000048
:204179004000000000000000000000000000000000000001080002ef58d90140000403e48f
:0a4199004000002001410b08000067
:2041a300000000000000000000000000000000000000000000140056a70b201840011b80cc
:0941c30000006001404af8e0151b
:2041cc008000000000000000000000000000000000000000000800001f0080040100100295
:0a41ec004240100000029190008094
:2041f600000000000000000000000000000000000000000000002ee69180000002a50000dd
:0942160000000100017a50a4002f
:20421f000000000000000000000000000000000000000000000001ff480000000005a0345e
:0a423f000240008000818080000032
:204249000002000000000000000000000000000000000000000036f7819a1000020f1800d2
:0942690000000800155bd00108fb
:2042720000000000000000000000000000000000000000000000016c6900b0000000f08036
:0a429200000000010003d18e0000bf
:20429c000000000000000000000000000000000000000000000083cc01000000020f500051
:0942bc000000010004791000006b
:2042c50000002000000000000000000000000000000000000000003c2000d0000000f0009d
:0a42e500400000000002d08a000033
:2042ef000000000000000000000000000000000000000000000025769000008000af97348a
:09430f000400040b1a7e718408fd
:204318000000000000000000000000000000000000000000010200a9f8000814000aefa527
:0a4338004200000230ced908a100b7
:20434200000000000000000000000000000000000000000500043ef79800000080809000f5
:094362002a80000a80db00000043
:20436b0000000000000000000000000000000000000000000000026748100000000403a5c5
:0a438b00400000002bc3e00000001a
:204395000000000000000000000000000000000000000000000083cc0001000c40047f40a9
:0943b50068703042bded50e08853
:2043be00c0000000000000000000000000000000000000003000003c000080004800507526
:0a43de00400001000282b0800108d7
:2043e80000000000000000000000000000000000000000000004a9401000000008a41a20d2
:0944080060001003e8c818000070
:204411004000000000000000000000000000000000000000000801680d0000003185afa7c1
:0a443100c64000003e8100000000bc
:20443b000000000000000000000000000000000000000002000683dc0000001800585694a0
:09445b000002e103ecdb5801c191
:2044640080000000000000000000000000000000000000000000003c00000000000d83b834
:0a448400028040003fc09d0e0000c2
:20448e0000000000000000000000000000000000000000000004a9401000400c405a1a14fd
:0944ae0000000100696f00c0006c
:2044b7000000000000000000000000000000000000000000000041680f000000c10a10a4ae
:0a44d700000000002fc0800000006c
:2044e1000002000000000000000000000000200000000000000483ce002e00820085564079
:094501002000000b19f9188400d8
:20450a0000000000000000000000000000000400000000000000003c000100500005f7b450
:0a452a00000000a630e5901aa00082
:204534000000000000000000000000000000000000000000000083ce0000000040df321ca9
:0945540038000003e1e970e10008
:20455d0000002000000000000000000000000000000000000000403c20000000000af0a4e4
:0a457d00040000003f17b0890000a1
:204587000000000000000000000000000000000000000000000083de070e0100c4d117de13
:0945a7000005010161dd19a00805
:2045b00000000000000000000000000000000000000000000002403c00908000280e70a413
:0a45d000200000000d019900010019
:2045da000000000000000000000000000000000000000000000083ce030e0000428f7b060d
:0945fa000400021abdfd1090003e
:2046030000000000000000000000000000000000000000000002003c00000000001cd0e08d
:0a462300028000020282f09a0000fb
:20462d000000000000000000000000000000000000000010000083d6038c100c0000002039
:09464d003000381a9def91a0081d
:20465600c0000000000000000000000000000000000000008002403c000000004000000046
:0a46760040000100576dd10001045f
:02468000000038
:02468200110322
:02468400010132
:20468600000000000000000000000000000000000000000000000000000000000000000014
:0946a6000000000000000000000b
:2046af000000000000000000000000000000000000000000000000000000000000000000eb
:0a46cf0000000000000000000000e1
:2046d9000000000000000000000000000000000000000000000000000000000000000000c1
:0946f900000000000000000000b8
:20470200000000000000000000000000000000000000000000000000000000000000000097
:0a472200000000000000000000008d
:20472c0000000000000000000000000000000000000000000000000000000000000000006d
:09474c0000000000000000000064
:20475500000000000000000000000000000000000000000000000000000000000000000044
:0a477500000000000000000000003a
:20477f0000000000000800000000000020000000000800000000000020000000000000804a
:09479f000000000000020000000f
:2047a8000000000000000000000000000000000000000000000000000000000000000000f1
:0a47c80000000000000000000000e7
:2047d2000000000000080000000000002000000000080000000000002000000000000080f7
:0947f200000000000002000000bc
:2047fb0000000000000000000000000000000000000000000000000000000000000000009e
:0a481b000000000000000000000093
:20482500000000000000000000000000000000000000000000000000000000000000000073
:094845000000000000000000006a
:20484e0000000000000000000000000000000000000000000000000000000000000000004a
:0a486e000000000000000000000040
:20487800000000000000000000000000000000000000000000000000000000000000000020
:0948980000000000000000000017
:2048a1000000000000000000000000000000000000000000000000000000000000000000f7
:0a48c10000000000000000000000ed
:2048cb000000000000000000000000000000000000000000000000000000000000000000cd
:0948eb00000000000000000000c4
:2048f4000000000000000000000000000000000000000000000000000000000000000000a4
:0a4914000000000000000000000099
:20491e00000000000000000000000000000000000000000000000000000000000000000079
:09493e0000000000000000000070
:20494700000000000000000000000000000000000000000000000000000000000000000050
:0a4967000000000000000000000046
:20497100000000000000000000000000000000000000000000000000000000000000000026
:094991000000000000000000001d
:20499a000000000000000000000000000000000000000000000000000000000000000000fd
:0a49ba0000000000000000000000f3
:2049c4000000000000000000000000000000000000000000000000000000000000000000d3
:0949e400000000000000000000ca
:2049ed000000000000000000000000000000000000000000000000000000000000000000aa
:0a4a0d00000000000000000000009f
:204a170000020000000000000000000000000000000000000000000000000000000000007d
:094a370000000000000000000076
:204a4000000000000000000000000000000000000000000000000000000000000000000056
:0a4a6000000000000000000000004c
:204a6a0000000000000000000000000000000000000000000000000000000000000000002c
:094a8a0000000000000000000023
:204a93000000200000000000000000000000000000000000000000000000000000000000e3
:0a4ab30000000000000000000000f9
:204abd000000000000000000000000000000000000000000000000000000000000000000d9
:094add00000000000000000000d0
:204ae6000000000000000000000000000000000000000000000000000000000000000000b0
:0a4b060000000000000000000000a5
:204b1000000000000000000000000000000000000000000000000000000000000000000085
:094b30000000000000000000007c
:204b390000000000000000000000000000000000000000000000000000000000000000005c
:0a4b59000000000000000000000052
:204b6300000000000000000000000000000000000000000000000000000000000000000032
:094b830000000000000000000029
:204b8c00000000000000000000000000000000000000000000000000000000000000000009
:0a4bac0000000000000000000000ff
:204bb6000000000000000000000000000000000000000000000000000000000000000000df
:094bd600000000000000000000d6
:204bdf000400000000000000000000000000000000000000000000000000000000000000b2
:0a4bff0000000000000000000000ac
:204c090080000000000000000000000000000000000000000000000000000000000000000b
:094c290000000000000000000082
:204c3200000000000000000000000000000000000000000000000000000000000000000062
:0a4c52000000000000000000000058
:204c5c00000000000000000000000000000000000000000000000000000000000000000038
:094c7c000000000000000000002f
:204c850004000000000000000000000000000000000000000000000000000000000000000b
:0a4ca5000000000000000000000005
:204caf000002000000000000000000000000000000000000000000000000000000000000e3
:094ccf00000000000000000000dc
:204cd8000000000000000000000000000000000000000000000000000000000000000000bc
:0a4cf80000000000000000000000b2
:204d0200000000000000000000000000000000000000000000000000000000000000000091
:094d220000000000000000000088
:204d2b00000020000000000000000000000000000000000000000000000000000000000048
:0a4d4b00000000000000000000005e
:204d550000000000000000000000000000000000000000000000000000000000000000003e
:094d750000000000000000000035
:204d7e00000000000000000000000000000000000000000000000000000000000000000015
:0a4d9e00000000000000000000000b
:204da8000000000000000000000000000000000000000000000000000000000000000000eb
:094dc800000000000000000000e2
:204dd1000000000000000000000000000000000000000000000000000000000000000000c2
:0a4df10000000000000000000000b8
:204dfb00000200000000000000000000000000000000000080000000000000000000000016
:094e1b000000000000000000008e
:204e240000000000000000000000000000000000000000000000000000000000000000006e
:0a4e44000000000000000000000064
:204e4e00000000000000000000000000000000000000000000000000000000000000000044
:094e6e000000000000ea00000051
:204e7700040000000000000000000000000000000000000000000000000000000000000017
:0a4e970000000000004ea000000023
:204ea100800000000000000000000000000000000000000000000000000000000000000071
:094ec1000000000101781000005e
:204eca000000000000000000000000000000000000000000000000000000000000000000c8
:0a4eea0000000000003cd8000000aa
:204ef40000000000000000000000000000000000000000000000000000000000000000009e
:094f140000000001401c10000027
:204f1d00040000000000000000000000000000000000000000000000000000000000000070
:0a4f3d00000000008285b818000093
:204f4700000200000000000000000000000000000000000000000000000000000000000048
:094f670000000002104b000000e4
:204f7000000000000000000000000000000000000000000000000000000000000000000021
:0a4f900000000000d2241198000078
:204f9a000000000000000000000000000000000000000000000000000000000000000000f7
:094fba00000000025ac0000000d2
:204fc3000000200000000000000000000000000000000000000000000000000000000000ae
:0a4fe30000000000da44019800000d
:204fed000000000000000000000000000000000000000000000000000000000000000000a4
:09500d0000000002801b00a0005d
:2050160000000000000000000000000000000000000000000000000000000000000000007a
:0a50360000000000c284f00a000030
:20504000000000000000000000000000000000000000000000000000000000000000000050
:095060000000000258c0008000ad
:20506900000000000000000000000000000000000000000000000000000000000000000027
:0a50890000000000da4400010018e6
:205093000002000000000000000000000000000000000000000000000000000000000000fb
:0950b30000000000004000a00014
:2050bc000000000000000000000000000000000000000000000000000000000000000000d4
:0a50dc00000000004000800a000000
:2050e6000000000000000000000000000000000000000000000000000000000000173b4018
:095106002000000281fc00f80009
:20510f00000000000000000000000000000000000000000000000000000000000002bd04bd
:0a512f00604000008bb7f1814000e2
:2051390000000000000000000000000000000000000000000000000000000000000c0a4000
:09515900400000003c0c000000c5
:20516200000000000000000000000000000000000000000000000000000000000400c384e2
:0a51820007000000abcdd0180000bc
:20518c00000000000000000000000000000000000000000000000000000000000800bf0636
:0951ac0000000000000000f0000a
:2051b50000000000000000000000000000000000000000000000000000000000080105e3e9
:0a51d500460000000000001b00006f
:2051df0000020000000000000000000000000000000000000000000000000000000a0b8019
:0951ff0040004411540b000001b2
:20520800000000000000000000000000000000000000000000000000000000000000a3f0f3
:0a52280067000001294ff01a000092
:205232000000000000000000000000000000000000000000000000000000000000ea171447
:0952520000000000143c080000fb
:20525b0000002000000000000000000000000000000000000000000000000000002ab97fb1
:0a527b00600000000297f50000003b
:20528500000000000000000000000000000000000000000000000000000000000069700030
:0952a500028000000000008000fe
:2052ae000000000000000000000000000000000000000000000000000000000000169178c1
:0a52ce006000000000000001000075
:2052d800000000000000000000000000000000000000000000000000000000000069d41465
:0952f80042000003c000000000a8
:2053010000000000000000000000000000000000000000000000000000000000001699726b
:0a53210003800600bc1c0000001809
:20532b00000000000000000000000000000000000000000080000000000000000000d4000e
:09534b0000000002580e000000f1
:20535400000000000000000000000000000000000000000000000000000000000010082100
:0a537400600000009a5400000000e1
:20537e00004000000000000000000000000d000000000000000000000000000100501f0052
:09539e0000000003beec00000059
:2053a7000403800000000000000000000000100000000000000000000000000010a2036832
:0a53c700600000001ce5d0000000ab
:2053d100800000000000000000000000000000000000000000000000000000100058524042
:0953f10000004000000000f00182
:2053fa0000000000000000000000000000000000000000000000000000000000082a4d8094
:0a541a000000000000000000000088
:20542400080000000000000000000000000000000000000000000140c000000000501e8071
:0954440000000000000000a000bf
:20544d00040000000000000000000000000000000000000000002029610080001062036834
:0a546d00078000000000059b00000e
:20547700000000000000000000000000000000000000001000000000000000110080035c15
:095497000000400000005000017b
:2054a000000000000000000000000000000000000000000280000000000000001c2423a265
:0a54c00006000000000008000000d4
:2054ca000000000000000000000000000000000000000000000000000000000000aa000018
:0954ea0074000000000000000045
:2054f3000000000000000000000000000000c00000000000000000000001a000000aa1602d
:0a55130042800000000000000000cc
:20551d000c00000000000000000000000000000000000000000000000000400000f004141a
:09553d0020000041402d00000097
:2055460004c000000000000000000000000000000000000000000000000008000010f12a4e
:0a556600004000108806e00000007d
:20557000800000000000000000000140e000000000000000000000000000004000f0040046
:095590002000000022dc080000ec
:20559900000000000000000000001029610000000000000000000000000000000010f178df
:0a55b90006470600002e9780001838
:2055c3000000000000000000000000000000000000000000000000000000000000f0d034d4
:0955e3000000000104d9100000d1
:2055ec00040300000000000000000000000000000000000000000000000000000010fbe0ad
:0a560c0006800000206fc8000000b7
:205616000000000000000000000000000000000000000000000003c200000000005b16c47a
:095636000000100000001000004b
:20563f0044000000000000000000000000000000000000000002083ce0000000000a4faade
:0a565f000600030000000900000c23
:205669008000000000000000000000000000000000000000000003c00100000010a7de80c8
:09568900800000017c0d00f0001e
:2056920000000000000000000000000000000000000000000008083ce0800000202a41fcc5
:0a56b20000000080a81dd00f0000ca
:2056bc000800000000000000000000000000000000000000000403c2010000000c0f164487
:0956dc0000000001d7cb10000012
:2056e50004078000000000000000000000000000000000000000083d409980000868efac71
:0a570500000000002ee6981e0000d0
:20570f00000200000000000000000000001f000000000000000403c00100000019af0b407e
:09572f00000000030c4f00000013
:205738000000000000000000000000000001d000000000000000083d400180000c6a31ece7
:0a57580000000000b1add00e00000b
:205762000000000000000000000001409000000000000000000003c00000000000009a00f9
:09578200200000436cc9900000f6
:20578b00000030000000000000001028c1000000000000000002083c600000000900117c99
:0a57ab00075000008920ed80000087
:2057b5000c00000000000000000002810000000000000000000003c2000e000818530a6491
:0957d500000080414c0970000045
:2057de00044000000000000000001028d8000000000000000000483ce0180000c52a318338
:0a57fe00c0104895a8ce000000007e
:20580800800000000000000000000000008004000000000000401680f0080000000f9a0005
:09582800000100003cfb008000bf
:20583100000000000000000000000000005800000000000000000a94000010018008e17c6b
:0a585100e70006002385e5010018ba
:20585b00000200000000000000000000000000000000000080000105b000000000000004f1
:09587b0000000200137910b000d6
:20588400040780000000000000000000000000000000000000004002ce0000000000000366
:0a58a400c0000100152689800004f1
:2058ae0000000000000000000000000000000000000000000000000000890004000007f452
:0958ce0000001202664b110000fb
:2058d70040000000000000000000000000000000000000000200000000700008c04a506439
:0a58f7000000032099a0080a000c2d
:205901000000000000000000000000000000000000000000000000000100000000ca9a80a1
:0959210000000000045bd090803e
:20592a0000000000000000000000000000000000000000000000000000818000002c5d00d3
:0a594a0006800000012fa0000000fd
:205954000000000000000000000000000000000000000000000000000080000000dbd30005
:095974002400000021f9080000e4
:20597d00000000000000000000000000000000000000000000000000005000000022403c1c
:0a599d00064000001514951e0000de
:2059a700000200000000000000000000000000000000000000000000000018009000b71669
:0959c70000000022000e010000a6
:2059d00000000000000000000000000000000000000000000000000000000000000013eeb6
:0a59f000e0000010100e10081c006b
:2059fa000000000000000000000000000000000000000000000000000000a00000223bf69a
:095a1a00000000000cddb001c029
:205a230000003000000000000000000000000000000000000000000000000400000449f4ee
:0a5a4300e00020000fd698180000c4
:205a4d00000000000000000000000000000000000000000000200143b008000000470adcf0
:095a6d00200000022c1a18800030
:205a7600000000000000000000000000000000000000000000000abddc7010001408532856
:0a5a9600626000102055f5010100c8
:205aa000000000000000000000000000000000000000000000822a8200000000000a0a4460
:095ac000000100000c1db0a00063
:205ac900000000000000000000000000000000000000000000020aa94e000401800055865a
:0a5ae900e00706103fd69980001870
:205af3000002000000000000000000000000000000000000000029fcb00000000022be409c
:095b130000000001225ed0000038
:205b1c00000000000000000000000000000000000000000000000a93ea000000400447ec6b
:0a5b3c0000000100002ef00000043c
:205b460000000000000000000000000000000080000000002001121dc91ea0001000d3c441
:095b6600420018017c1d900200b0
:205b6f00440000000000000000000000000000000000000100000283e880840008080de65d
:0a5b8f00c3060301a8179818400c84
:205b9900800000000000000000010280900e000000000000000430eea70b004800aa040081
:095bb90000300040027e000000f3
:205bc200000000000000000000000015c0000000000000000000031bc8f0f008c02aa1f89d
:0a5be200000000840077d00000806e
:205bec00080000000000000000000000000000000000000000000282bd0f000008fd07c075
:095c0c00340002130c5d010800d4
:205c15000400000000000000000000000000000000000000000200007b001000040fa3ac7c
:0a5c350003c00020b1b7919c4000ad
:205c3f000002000000000000000000000000000000000000000017c2d30000000002f38022
:095c5f00680000003e5ad09000dc
:205c68000000000000000000000000000000000000000000000402bc6081e00000001b047a
:0a5c880003400001a3b7d00008009c
:205c9200000000000000000000000000000000000000000000240001eb1a004000005734fd
:095cb2007c00000000005180009c
:205cbb00000020000000000000000000000000000000000000000014eed1c18000884ff8c6
:0a5cdb0002d00000000000191000c4
:205ce500000000000000000000000000000000000000000000000000b00b00000805073e92
:095d0500000000030edc000000a8
:205d0e000000000000000000000000000000000000000000000041417901e0000400b3ab37
:0a5d2e00c000000011cfe0000000eb
:205d38000000000000000000000000000000000000000000000003c4f300000000415700f9
:095d5800280000000000b00a0060
:205d6100000000000000000000000000000000000000000005001239ca10a40000002ff82d
:0a5d810002c00600000008184018d8
:205d8b000042000000000000000000000b0000000000000680003e810f1000200020f38094
:095dab00000000000000000000ef
:205db4000003800000000000000000000000000000000000000003e95e00a48000408b6ca7
:0a5dd40000000100000000000004c0
:025dde000000c3
:035de00062003f1f
:035de300720080cb
:025de6001100aa
:035de80082000036
:025deb000103b2
:085ded000000000000000c00a2
:085df5000000000000000c009a
:085dfd000000000000000c0092
:085e05000000000000000c0089
:085e0d000000000000000c0081
:085e15000000000000000c0079
:085e1d000000000000000c0071
:085e25000000000000000c0069
:085e2d000000000000000c0061
:085e35000000000000000c0059
:085e3d000000000000000c0051
:085e45000000000000000c0049
:085e4d000000000000000c0041
:085e55000000000000000c0039
:085e5d000000000000000c0031
:085e65000000000000000c0029
:085e6d000000000000000c0021
:085e75000000000000000c0019
:085e7d000000000000000c0011
:085e85000000000000000c0009
:085e8d000000000000000c0001
:085e95000000000000000c00f9
:085e9d000000000000000c00f1
:085ea5000000000000000c00e9
:085ead000000000000000c00e1
:085eb5000000000000000c00d9
:085ebd000000000000000c00d1
:085ec5000000000000000c00c9
:085ecd000000000000000c00c1
:085ed5000000000000000c00b9
:085edd000000000000000c00b1
:085ee5000000000000000c00a9
:085eed000000000000000c00a1
:085ef5000000000000000c0099
:085efd000000000000000c0091
:085f05000000000000000c0088
:085f0d000000000000000c0080
:085f15000000000000000c0078
:085f1d000000000000000c0070
:085f25000000000000000c0068
:085f2d000000000000000c0060
:085f35000000000000000c0058
:085f3d000000000000000c0050
:085f45000000000000000c0048
:085f4d000000000000000c0040
:085f55000000000000000c0038
:085f5d000000000000000c0030
:085f65000000000000000c0028
:085f6d000000000000000c0020
:085f75000000000000000c0018
:085f7d000000000000000c0010
:085f85000000000000000c0008
:085f8d000000000000000c0000
:085f95000000000000000c00f8
:085f9d000000000000000c00f0
:085fa5000000000000000c00e8
:085fad000000000000000c00e0
:085fb5000000000000000c00d8
:085fbd000000000000000c00d0
:085fc5000000000000000c00c8
:085fcd000000000000000c00c0
